:020000040800F2
:10000000F00C002069020008F90D0008810B0008BF
:10001000F50D000841080008351D0008000000002B
:1000200000000000000000000000000015130008A0
:100030000D0A000800000000D30E00082D1400086F
:10004000830200088302000883020008830200087C
:10005000830200088302000883020008830200086C
:10006000830200088302000883020008830200085C
:10007000830200088302000883020008830200084C
:10008000830200088302000883020008830200083C
:10009000830200088302000883020008830200082C
:1000A000830200088302000883020008830200081C
:1000B00099140008830200088302000883020008E4
:1000C00083020008830200088302000883020008FC
:1000D000830200088302000883020008FD1B000859
:1000E00083020008830200088302000883020008DC
:1000F00083020008830200088302000883020008CC
:100100008302000883020008991700088302000890
:1001100083020008830200088302000883020008AB
:10012000830200088302000883020008830200089B
:10013000830200088302000883020008830200088B
:10014000830200088302000883020008830200087B
:10015000830200088302000883020008830200086B
:10016000830200088302000883020008830200085B
:10017000830200088302000883020008830200084B
:10018000830200088302000800F002F800F05CF827
:100190000AA090E8000C82448344AAF10107DA45E2
:1001A00001D100F051F8AFF2090EBAE80F0013F0D8
:1001B000010F18BFFB1A43F0010318474C3400002D
:1001C0006C3400000A444FF0000C10F8013B13F0AF
:1001D000070408BF10F8014B1D1108BF10F8015BA0
:1001E000641E05D010F8016B641E01F8016BF9D193
:1001F00013F0080F1EBF10F8014BAD1C0C1B09D1EA
:100200006D1E58BF01F801CBFAD505E014F8016B5B
:1002100001F8016B6D1EF9D59142D6D370470000ED
:100220000023002400250026103A28BF78C1FBD8FF
:10023000520728BF30C148BF0B6070471FB503F09D
:10024000DDF91FBD10B510BD00F033F81146FFF702
:10025000F5FF02F07BFB00F051F803B4FFF7F2FF6B
:1002600003BC01F0A7FD000009488047094800478A
:10027000FEE7FEE7FEE7FEE7FEE7FEE7FEE7FEE756
:10028000FEE7FEE704480549054A064B70470000B3
:100290003114000889010008F0060020F00C00204D
:1002A000F0080020F0080020704770477047704742
:1002B0007047754600F028F8AE460500694653467B
:1002C00020F00700854618B020B5FFF7DBFFBDE83A
:1002D00020404FF000064FF000074FF000084FF0AD
:1002E000000B21F00701AC46ACE8C009ACE8C0093E
:1002F000ACE8C009ACE8C0098D4670470446AFF3CE
:1003000000802046FFF7A9FF004870478C060020B8
:1003100021B1826842F00102826003E0826822F02B
:1003200001028260704700000021084A1168084AF3
:100330001140D0E900231A4383681A43C3681A4363
:100340001143044AC2F8041370470000042301401B
:10035000E030FCFF0020014021B1826842F480724D
:10036000826003E0826822F480728260704721B16B
:10037000826842F40072826003E0826822F40072B4
:100380008260704710B50121080200F0D3FD002102
:100390004FF4807000F0CEFD10BD000030B5024675
:1003A000002000235068104C20400D790C6844EA6E
:1003B00005242043506090680C4C2040D1E9035440
:1003C0002C438D682C434D7944EA450420439060CA
:1003D000D06A20F470000C7D641EE4B2234340EA2E
:1003E0000350D06230BD0000FFFEFFFCFDF7FFC0F0
:1003F000F0B504460D4600200021092D11DDE0680E
:10040000A5F10A0606EB4607072606FA07F1884318
:10041000A5F10A0606EB460603FA06F10843E0607A
:100420000CE0206905EB4507072606FA07F188432B
:1004300005EB450603FA06F108432061072A0FDAA7
:10044000606B561E06EB86071F2606FA07F18843E7
:10045000561E06EB860605FA06F10843606322E0A5
:100460000D2A0FDA206BD61F06EB86071F2606FA29
:1004700007F18843D61F06EB860605FA06F1084306
:10048000206310E0E06AA2F10D0606EB86071F2646
:1004900006FA07F18843A2F10D0606EB860605FA77
:1004A00006F10843E062F0BD816841F0804181605F
:1004B000704700002DE9F0410124002600250127A6
:1004C00065E1002000F012FC06460EB134463746C6
:1004D000012F26D101F00CFDAFA20121002001F077
:1004E0009BFEB2A20121022001F096FEB0A20121E2
:1004F000042001F091FEAFA20121062001F08CFE44
:10050000ADA24221022001F087FEACA242210420CC
:1005100001F082FEAAA24221062001F07DFE002702
:1005200050E0022F26D101F0E3FC9BA20121002024
:1005300001F072FEA3A20121022001F06DFEA2A231
:100540000121042001F068FEA0A20121062001F093
:1005500063FE9FA24221022001F05EFE9EA2422184
:10056000042001F059FE9EA24221062001F054FE13
:10057000002727E0032F25D101F0BAFC86A2012134
:10058000002001F049FE98A20121022001F044FE62
:1005900097A20121042001F03FFE97A2012106202D
:1005A00001F03AFE95A24721022001F035FE94A207
:1005B0004721042001F030FE92A24721062001F0DD
:1005C0002BFE0027681CC5B2642D00DB002505202A
:1005D00095FBF0F100FB115028BB032C23D1012027
:1005E00001F01EFD804642461A21062001F0D0FE91
:1005F000022001F015FD804642466021022001F0F4
:10060000C7FE032001F00CFD804642466021042015
:1006100001F0BEFE042001F003FD80464246602149
:10062000062001F0B5FE002D71D1012C36D100203D
:1006300001F0C4FB804642461A21022001F0BEFEB2
:10064000012001F0BBFB804642461A21042001F044
:10065000B5FE022001F0B2FB804642461A21062078
:1006600001F0ACFE032001F0A9FB80464246602168
:10067000022001F0A3FE042001F0A0FB80464246C8
:100680006021042001F09AFE052001F097FB8046CE
:1006900042466021062001F091FE75E0022C37D120
:1006A000062001F08BFB804642461A21022001F011
:1006B00085FE072001F082FB804642461A21042075
:1006C00001F07CFE082001F079FB804642461A21A9
:1006D000062001F073FE092001F070FB80464246BF
:1006E0006021022001F06AFE0A2001F067FB8046CB
:1006F00042466021042001F061FE0B2001F05EFB08
:10070000804642466021062001F058FE3CE038E079
:10071000032C39D10C2001F051FB804642461F21A9
:10072000022001F04BFE0D2001F048FB80464246BE
:100730001F21042001F042FE012001F071FC8046DF
:1007400042461A21062001F023FE022001F068FC37
:10075000804642466021022001F01AFE032001F08B
:100760005FFC804642466021042001F011FE042017
:1007700001F056FC804642466021062001F008FE4A
:1007800002E0042C00D103E0052001F007FC98E60C
:1007900000BFBDE8F0810000202D41442044657475
:1007A000656374696F6E2D200000000041303D00CC
:1007B00041313D0041323D0041333D0041343D0077
:1007C00041353D0041363D0041373D0041383D0057
:1007D0004139203D000000004131303D0000000063
:1007E0004131313D000000004131323D0000000048
:1007F0004131333D0000000044313D0044323D00B2
:1008000044333D0044343D001CB54FF4006000907B
:1008100001208DF8040000208DF8060003208DF8DB
:10082000050001208DF807006946044800F01CF916
:100830004FF40061014800F08DF91CBD000C02402E
:1008400000BFFEE721B1026842F00102026003E04E
:10085000026822F00102026070470000016821F086
:10086000010101600021016041608160C16001619E
:10087000212141614A49884204D13D21484A103A28
:1008800091608CE046491831884205D14FF474617B
:10089000434A103A916082E041493031884205D1A3
:1008A0004FF474113E4A103A916078E03C49483167
:1008B000884205D14FF07461394A103A91606EE078
:1008C00037496031884204D13649354A103AD160FF
:1008D00065E033497831884204D13349304A103ACF
:1008E000D1605CE02E499031884204D12F492C4AD6
:1008F000103AD16053E02A49A831884205D14FF01F
:100900003D51274A103AD16049E02949884204D133
:100910003D21274A083A116041E0254918318842B3
:1009200005D14FF47461224A083A116037E020493A
:100930003031884205D14FF474111D4A083A1160D4
:100940002DE01B494831884205D14FF07461184AA7
:10095000083A116023E016496031884204D11149F8
:10096000134A121F11601AE011497831884204D1EC
:100970000D490F4A121F116011E00D499031884254
:1009800004D10A490A4A121F116008E00849A83137
:10099000884204D14FF03D51054A121F1160704743
:1009A000106002403D000020400F002000003D206C
:1009B0001064024010B500220268134B1A40CC6844
:1009C0000B6823434C6923438C692343CC6923433D
:1009D0000C6A23434C6A23438C6A23434C6B2343A6
:1009E0008C6B23431A430260426922F00702D1E96B
:1009F0000B3423431A4342610B6943604B688360A5
:100A00008B68C36010BD00003F801CF07047000081
:100A10001CB50220009001208DF804008DF806001E
:100A200003208DF8050001208DF807006946024873
:100A300000F01AF81CBD0000001002401CB5022096
:100A4000009000208DF8040002208DF8070003209C
:100A50008DF8050001208DF807006946014800F077
:100A600003F81CBD00100240F0B50A460021002327
:100A7000002400BF3DE0012505FA01F3156805EAF1
:100A800003049C4234D105684F000326BE40B543A1
:100A9000056015794E00B540066835430560157947
:100AA000012D02D01579022D16D185684F0003263D
:100AB000BE40B543856055794E00B54086683543E4
:100AC0008560456801268E40B54345604568967946
:100AD0008E40B6B235434560C5684F000326BE4020
:100AE000B543C560D5794E00B540C6683543C5608D
:100AF000491C1029BFD3F0BDF0B5002300244D07D9
:100B0000ED0E02FA05F3CE1000F1200555F826503F
:100B10004E07F70E0F26BE40B543CF1000F120065A
:100B200046F82750CE1000F1200555F8265045EA2A
:100B30000304CE1000F1200545F82640F0BD024622
:100B4000002013690B400BB1012000E0002070472A
:100B5000418370470183704770B504460D460648CF
:100B60000460064805602146002001F067FF294621
:100B7000012001F063FF70BD04060020080600207C
:100B800000BFFEE710B54FF4C87001F0DBF900F0CC
:100B90007BF904213048FFF7DBFF01212E48FFF7E6
:100BA000D9FFAE2002F066F9202002F063F9102090
:100BB00002F060F9B02002F05DF9C82002F05AF9A5
:100BC000002002F057F9102002F054F9402002F002
:100BD00051F9812002F04EF9FF2002F04BF9A120DB
:100BE00002F048F9A62002F045F9A82002F042F9E7
:100BF0003F2002F03FF9A42002F03CF9D32002F09C
:100C000039F9002002F036F9D52002F033F9F0204E
:100C100002F030F9D92002F02DF9222002F02AF951
:100C2000DA2002F027F9122002F024F9DB2002F08A
:100C300021F9202002F01EF98D2002F01BF914206A
:100C400002F018F9AF2002F015F904210248FFF76D
:100C500081FF01F04DF910BD001002401CB54FF4AA
:100C60000070009000208DF8040003208DF805002E
:100C700001208DF8070069461848FFF7F5FE80202F
:100C8000009000208DF8040003208DF8050001205D
:100C90008DF8070069461248FFF7E6FE40200090F5
:100CA00000208DF8040003208DF8050001208DF848
:100CB000070069460B48FFF7D7FE4FF4005000903D
:100CC00000208DF8040003208DF8050001208DF828
:100CD000070069460448FFF7C7FE1CBD0004024038
:100CE000000C0240001002400008024010B504460B
:100CF00014B101201F4908701E48007828B31E480F
:100D0000006840B11D48006828B11D48006810B156
:100D10001C480068C8B90A2001F040F900201549B4
:100D200008701548006808B9032010BD1348006812
:100D300008B90420F9E71248006808B90120F4E76F
:100D40001048006898B90220EFE70B4800680128B6
:100D50000DD10A480068012809D109480068012816
:100D600005D108480068012801D102490870002017
:100D7000DBE7000000000020248240421C82414248
:100D800018024242340241421CB54FF48050009098
:100D900001208DF8040000208DF8060003208DF856
:100DA000050001208DF8070069461048FFF75CFE3A
:100DB0004FF400610D48FFF7CDFE4FF40060009046
:100DC00001208DF8040000208DF8060003208DF826
:100DD000050001208DF8070069460548FFF744FE2D
:100DE0004FF400610248FFF7B5FE1CBD0000024051
:100DF0000010024000BFFEE77047000070B5002100
:100E000000230F22C4781CB3174C246804F4E06458
:100E1000C4F5E064C4F30721C1F10404E3B20A415C
:100E200044789C40E1B28478144021430C07210EA1
:100E30000E4C05786155047804F01F050124AC4080
:100E400005786D11AD0005F1E025C5F8004109E018
:100E5000047804F01F050124AC40054D0678761196
:100E600045F8264070BD00000CED00E000E400E015
:100E700080E100E002490143024A1160704700002E
:100E80000000FA050CED00E01CB53F2000900120A9
:100E90008DF8040000208DF8060003208DF8050071
:100EA00001208DF8070069460148FFF7DDFD1CBDF4
:100EB0000010024010B5142140F2FB3000F050FB4E
:100EC000142140F2FB3000F0D9FB012001F00EFDAF
:100ED00010BD704729B1064A12680243044B1A60DC
:100EE00004E0034A12688243014B1A607047000015
:100EF0003038024029B1064A12680243044B1A6096
:100F000004E0034A12688243014B1A6070470000F4
:100F10004038024029B1064A12680243044B1A6065
:100F200004E0034A12688243014B1A6070470000D4
:100F30004438024029B1064A12680243044B1A6041
:100F400004E0034A12688243014B1A6070470000B4
:100F500024380240F0B5002100220024022500269A
:100F60000223324F3F6807F00C0121B1042905D05C
:100F7000082937D105E02E4F076036E02D4F076076
:100F800033E02A4F3F1F3F68C7F38056274F3F1F6C
:100F90003F6807F03F036EB1264FB7FBF3F7DFF86A
:100FA0008CC0ACF1040CDCF800C0CCF3881C07FB4F
:100FB0000CF40CE01E4FB7FBF3F7DFF870C0ACF198
:100FC000040CDCF800C0CCF3881C07FB0CF4174FB2
:100FD0003F1F3F68C7F301477F1C7D00B4FBF5F757
:100FE000076002E0124F076000BF00BF0F4F3F686D
:100FF00007F0F0010909104F7A5C0768D740476095
:101000000A4F3F6807F4E051890A0B4F7A5C476842
:10101000D7408760054F3F6807F46041490B064F92
:101020007A5C4768D740C760F0BD000008380240CE
:101030000024F40000127A001C06002000B59BB0CA
:1010400001218805FFF746FF3F20199003208DF806
:10105000680000208DF86B0019A9A648FFF704FD71
:10106000FF20199003208DF8680000208DF86B0098
:1010700019A9A148FFF7F8FC032019908DF8680022
:1010800000208DF86B0019A99C48FFF7EDFC4FF28A
:101090008070199000208DF8680003208DF8690099
:1010A00001208DF86B0019A99548FFF7DDFC4FF67C
:1010B0000440199000208DF8680003208DF8690025
:1010C00001208DF86B0019A98C48FFF7CDFC40F288
:1010D0001F70199000208DF8680003208DF86900BA
:1010E00001208DF86B0019A98648FFF7BDFC4FF46D
:1010F0000040199000208DF8680003208DF86900E9
:1011000001208DF86B0019A97B48FFF7ADFC4FF467
:101110008050199000208DF8680003208DF8690038
:1011200001208DF86B0019A97248FFF79DFC012181
:101130000802FFF7FFFE00214FF48070FFF7FAFE70
:101140007148FFF78BFB00200090704801907048B9
:1011500002900020039010200490002005904FF48E
:101160008060069040000790800008904011099030
:1011700040020A9000200B9001200C9000200D905E
:101180000E9069466048FFF715FC01215E48FFF7A5
:1011900059FB01210802FFF7BDFE01210802FFF7FC
:1011A000C9FE00214FF48070FFF7C4FEFFF7EAF894
:1011B0000020159017904FF4803016900020189062
:1011C00015A8FFF7B1F800200F9001208DF840001E
:1011D0008DF8410000201190139010208DF85000E0
:1011E0000FA94A484C38FFF7D9F803230122002100
:1011F00046484C38FFF7FCF80323022201214348FC
:101200004C38FFF7F5F803231A4602213F484C38C3
:10121000FFF7EEF80323042219463C484C38FFF749
:10122000E7F803230522042138484C38FFF7E0F89B
:1012300003230622052135484C38FFF7D9F803234C
:101240000722062131484C38FFF7D2F80323082241
:1012500007212E484C38FFF7CBF803230922082139
:101260002A484C38FFF7C4F803230A2209212748EB
:101270004C38FFF7BDF803230B220A2123484C38D2
:10128000FFF7B6F803230C220B2120484C38FFF758
:10129000AFF803230D220C211C484C38FFF7A8F8A7
:1012A00003230E220D2119484C38FFF7A1F8032320
:1012B0000F220E2115484C38FFF79AF8032310220D
:1012C0000F2112484C38FFF793F801210F484C3892
:1012D000FFF74DF801210D484C38FFF73DF801218B
:1012E0000A484C38FFF714F808484C38FFF7DCF888
:1012F0001BB000BD00080240000002400004024094
:1013000000100240000C0240106402404C200140DA
:101310002C060020704700000CB5002001900090C2
:101320003448006840F480303249086000BF3148DA
:10133000006800F4003000900198401C0190009873
:1013400018B90198B0F5A04FF1D12A48006800F40F
:10135000003010B10120009001E0002000900098C2
:10136000012846D123484030006840F08050214990
:10137000403108602048006840F440401E49086041
:101380001C48083000681B4908310860084600689E
:1013900040F4004008600846006840F4A05008602F
:1013A0001648091F0860081F006840F08070091F78
:1013B000086000BF0F48006800F000700028F9D0F6
:1013C00040F205700E4908600A480830006820F0B5
:1013D00003000849083108600846006840F0020030
:1013E000086000BF03480830006800F00C000828BF
:1013F000F8D10CBD0038024000700040085440078E
:10140000003C0240042808D14FF0E021096941F076
:1014100004014FF0E022116107E04FF0E02109697B
:1014200021F004014FF0E022116170477047000085
:1014300010B51548006840F470001349086013485F
:10144000006840F001001149086000200F49083190
:1014500008600E4800680E4908400C4908600D48B5
:10146000091D0860081F006820F48020091F08601B
:10147000002006490C310860FFF74EFF4FF0006076
:1014800001498039086010BD88ED00E00038024055
:10149000FFFFF6FE1030002410B50121880700F090
:1014A000E2F9012823D114480078012810D113480B
:1014B0000088401C1149088008460088C82807DBBE
:1014C00001200F49086000200B4908700B49088073
:1014D0000C480088401C0B49088008460088B0F57D
:1014E0007A7F04D108480088401C07490880012100
:1014F000880700F0A9F910BD0006002002060020B0
:10150000AC824142F8050020FA0500207FB505466F
:101510000C4601210846FFF7EDFC0295ADF80440AA
:101520000020ADF80600ADF80C0001A94FF0804096
:1015300000F008FB01221146900700F0A5F91C20DD
:101540008DF8000001208DF8010003208DF80200C5
:1015500001208DF803006846FFF750FC7FBD0000B6
:1015600030B58BB004460D4601210220FFF7C2FCC6
:10157000022206213F48FFF7BFFA022207213D4819
:10158000FFF7BAFA022208213A48FFF7B5FA022219
:1015900009213848FFF7B0FA4FF470700990022023
:1015A0008DF8280003208DF8290000208DF82A00EE
:1015B00001208DF82B0009A92E48FFF755FAA8B293
:1015C000ADF818000020ADF81A000794ADF820001F
:1015D00006A9294800F0B6FA6020ADF80400012001
:1015E000ADF806000020ADF8100001A9224800F077
:1015F00055F96020ADF804000120ADF80600002088
:10160000ADF8100001A91C4800F090F96020ADF879
:1016100004000120ADF806000020ADF8100001A97B
:10162000154800F0E3F96020ADF804000120ADF8A2
:1016300006000020ADF8100001A90F4800F030FAB4
:1016400008210D4800F068F908210B4800F0C0F9A6
:101650000821094800F01AFA0821074800F05CFA4E
:101660000121054800F0E4F80121034800F0EFF8FB
:101670000BB030BD000802400004004030B58BB014
:1016800004460D4601210420FFF734FC02220C2100
:101690003F48FFF731FA02220D213D48FFF72CFAAF
:1016A00002220E213A48FFF727FA02220F2138487A
:1016B000FFF722FA4FF47040099002208DF82800BD
:1016C00003208DF8290000208DF82A0001208DF8D4
:1016D0002B0009A92E48FFF7C7F9A8B2ADF81800EA
:1016E0000020ADF81A000794ADF8200006A929489B
:1016F00000F028FA6020ADF804000120ADF80600E3
:101700000020ADF8100001A9224800F0C7F86020C1
:10171000ADF804000120ADF806000020ADF810007F
:1017200001A91C4800F002F96020ADF80400012076
:10173000ADF806000020ADF8100001A9154800F032
:1017400055F96020ADF804000120ADF80600002036
:10175000ADF8100001A90F4800F0A2F908210D48CA
:1017600000F0DAF808210B4800F032F908210948A6
:1017700000F08CF90821074800F0CEF90121054856
:1017800000F056F80121034800F061F80BB030BDBD
:10179000000C02400008004010B501210C4800F088
:1017A00062F801280ED10B480088401C09490880C6
:1017B00008460088B0F57A7F04D107480088401CAD
:1017C000054908800121024800F03EF810BD0000E4
:1017D000000C0040FC050020FE0500207FB50546FA
:1017E0000C4601210820FFF785FB0295ADF8044067
:1017F0000020ADF80600ADF80C0001A90B4800F080
:10180000A1F901221146094800F03EF832208DF876
:10181000000001208DF8010003208DF80200012056
:101820008DF803006846FFF7E9FA7FBD000C004021
:1018300021B1028842F08002028004E002884FF663
:101840007F731A4002807047CA430282704721B1F9
:10185000028842F00102028004E002884FF6FE7323
:101860001A400280704730B5024600200023002451
:10187000158A05EA0103958905EA010413B10CB143
:10188000012000E0002030BD1AB183890B43838121
:1018900002E083898B4383817047000070B5002488
:1018A00000220023058C4FF6FE7635400584028C1D
:1018B0008388048B4FF68F752C40B51E2C400D8805
:1018C0002C43751E2A408D892A434D882A43104D8A
:1018D000A84202D00F4DA84213D14FF6F7752A4007
:1018E000CD892A434FF6FB752A408D882A434FF64F
:1018F000FF652B404FF6FF552B400D8A2B434D8A39
:101900002B43838004838D684563028470BD00008F
:1019100000000140000401400A460021018B4FF6FF
:10192000F7731940114301837047000070B500241C
:1019300000220023058C4FF6EF7635400584028C9B
:101940008388048B48F6FF752C404FF6FF452C40EA
:101950000D884FF6FF7606EA05252C434FF6DF7516
:101960002A408D8906EA05152A434D8806EA0515A1
:101970002A43154DA84202D0144DA8421DD14FF65E
:101980007F752A40CD894FF6FF7606EA05152A4372
:101990004FF6BF752A408D8806EA05152A434FF693
:1019A000FF352B404FF2FF752B400D8A06EA850567
:1019B0002B434D8A06EA85052B43838004838D687B
:1019C0008563028470BD00000000014000040140F6
:1019D0000A460021018B4FF2FF7319404FF6FF7347
:1019E00003EA0223194301837047000070B5002405
:1019F00000220023058C4FF6FF6635400584028CDB
:101A00008388848B4FF68F752C404FF6FC752C40E5
:101A10000D882C434FF6FF552A408D894FF6FF76EF
:101A200006EA05252A434D8806EA05252A43154D71
:101A3000A84202D0144DA8421DD14FF2FF752A4092
:101A4000CD894FF6FF7606EA05252A434FF6FF3586
:101A50002A408D8806EA05252A434EF6FF752B405D
:101A60004DF6FF752B400D8A06EA05152B434D8A6E
:101A700006EA05152B43838084838D68C563028441
:101A800070BD000000000140000401400A46002132
:101A9000818B4FF6F7731940114381837047000023
:101AA00070B5002200230024058C4EF6FF763540E9
:101AB0000584038C8488828B48F6FF752A404FF694
:101AC000FF452A400D884FF6FF7606EA05252A4392
:101AD0004DF6FF752B408D8906EA05352B434D8861
:101AE00006EA05352B430A4DA84202D0094DA8420B
:101AF00008D14BF6FF752C400D8A4FF6FF7606EAAB
:101B000085152C43848082838D680564038470BDB1
:101B100000000140000401400A460021818B4FF281
:101B2000FF7319404FF6FF7303EA022319438183C1
:101B300070474163704781637047C16370470164B8
:101B40007047000000220288184B98420ED0184BB4
:101B500098420BD0B0F1804F08D0164B984205D078
:101B6000154B984202D0154B984204D14FF68F7313
:101B70001A404B881A43124B984207D0114B984297
:101B800004D04FF6FF431A400B891A4302804B687A
:101B9000C3620B880385054B984202D0044B9842E0
:101BA00001D18B7A038601238382704700000140B4
:101BB000000401400004004000080040000C004008
:101BC000001000400014004010B50C2000F0F6F8A2
:101BD000B0F5FA6F0EDD00F0B3FE0A2000F0DEF97A
:101BE0000C2000F0EBF8B0F5FA6F05DD00F0A2FE76
:101BF000012010BD0020FCE700BFFAE7704721B1CB
:101C0000828942F40052828104E082894DF6FF739A
:101C10001A4082817047F0B5034600240026002553
:101C2000002040F66A17B94200D100BF1846C1F340
:101C3000421401F01F06012707FA06F5012C01D115
:101C40000C3004E0022C01D1103000E014301AB145
:101C500007682F43076002E00768AF430760F0BDE5
:101C60002DE9FF4705460E460024A14600BFA046C9
:101C7000B08900B100BF2C8A24F44054F08804439A
:101C80002C82AC8941F20C608443B08831890843CE
:101C9000718908430443AC81AC8A24F44074B08950
:101CA0000443AC826846FFF755F92048854202D0CC
:101CB0001F48854202D1DDF80C9001E0DDF8089064
:101CC000A88900F4004040B109EBC90000EB0910FD
:101CD00031684900B0FBF1F707E009EBC90000EB00
:101CE000091031688900B0FBF1F76420B7FBF0F010
:101CF00004012009642101FB1078A88900F4004048
:101D000040B1322000EBC800B0FBF1F000F007005A
:101D1000044308E0322000EB08106421B0FBF1F02E
:101D200000F00F0004432C81BDE8FF870010014044
:101D30000014014000BFFEE710B54FF4A060FFF7AC
:101D400099F801210846FFF7C5F801210220FFF7A5
:101D5000C1F801210420FFF7BDF801210820FFF799
:101D6000B9F801211020FFF7B5F8A82000F0F8F825
:101D70000F49012001F0E2F8FEF746FDFEF76EFF85
:101D8000FEF700FFFFF796F8532140F2E730FFF728
:101D9000BDFB00F04DFF532140F2E730FFF71EFD81
:101DA00000F056FFFEF7F0FFFFF748F910BD000006
:101DB00040420F00014600BF7047000070B5044666
:101DC0000025102C29D2DFE804F0080A0C0E1012AE
:101DD0001416181A1C1E202224260A251DE00B2585
:101DE0001BE00C2519E00D2517E0002515E0012565
:101DF00013E0022511E003250FE004250DE0052581
:101E00000BE0062509E0072507E00E2505E00F2574
:101E100003E0082501E0092500BF00BF284600F0C7
:101E20007BFB024830F8150070BD00004C06002016
:101E300070B500254FF4966601240AE0E0B2FFF782
:101E4000BDFFB04204DDE0B2FFF7B8FF064625460D
:101E5000641C0B2CF2DDAAB20121042000F0AEFAC2
:101E6000284670BD10B500F059FE0AE06FF063011E
:101E70000846FEF771FE00F04BFEC82800DC00E0CB
:101E800000E0F3E700BF10BD10B500F047FE0AE028
:101E90006FF095019620FEF75FFE00F039FEC8282E
:101EA00000DC00E000E0F3E700BF10BD10B500F07B
:101EB00035FE09E064214842FEF74EFE00F028FEA0
:101EC000C82800DC00E000E0F4E700BF10BD10B55A
:101ED00000F002F810BD0000012003490870002046
:101EE000024908607047000000060020AC824142B1
:101EF00070B504211248FEF72BFE01211048FEF7B1
:101F000029FE002414E004F1B00000F0B3FF00202B
:101F100000F0B0FF102000F0ADFF002504E000202D
:101F200000F0DAFF681CC5B2802DF8DB601CC4B27B
:101F3000082CE8DB04210248FEF70CFE70BD00000F
:101F400000100240002107E0002200E0521C41F294
:101F50007C539A42FADB491C8142F5DB7047000052
:101F600010B504466FF00400FFF74CFAE11704EBDC
:101F70005171C1F3C701074A11701046007800EB98
:101F80004001C1EBC0104FF6FF7101EAC0000249E9
:101F9000088010BD180600201A06002070B50446FF
:101FA0004FF4077094FBF0F0C6B24FF4077094FB47
:101FB000F0F100FB114085B205E04FF4077000F02E
:101FC00009F8701EC6B2002EF7D115B1284600F0F0
:101FD00001F870BD0146114A12884A434FF0E023D0
:101FE0005A6100229A611A46126942F001021A618E
:101FF00000BF4FF0E022106900F001021AB100F4B6
:102000008032002AF5D04FF0E022126922F001025E
:102010004FF0E0231A6100229A6170471A060020EF
:10202000014600201A2915D2DFE801F00D151D2602
:102030002FE938414A535C656E778089929AA3AC48
:10204000B4BCC5CED7E06F4A1268012A01D1012085
:1020500000E00020D3E06C4A1268012A01D101207F
:1020600000E00020CBE0684A121D1268012A01D16D
:10207000012000E00020C2E0634A08321268012A11
:1020800001D1012000E00020B9E05F4A0C32126863
:10209000012A01D1012000E00020B0E05A4A1432A8
:1020A0001268012A01D1012000E00020A7E0564A71
:1020B00018321268012A01D1012000E000209EE0C0
:1020C000514A1C321268012A01D1012000E000208F
:1020D00095E04D4A20321268012A01D1012000E02A
:1020E00000208CE0474A20321268012A01D10120E9
:1020F00000E0002083E0434A24321268012A01D123
:10210000012000E000207AE03E4A28321268012ACD
:1021100001D1012000E0002071E03A4A2C3212681F
:10212000012A01D1012000E0002068E0354A303268
:102130001268012A01D1012000E000205FE0314A4D
:1021400034321268012A01D1012000E0002056E05B
:102150002E4A1268012A01D1012000E000204EE041
:102160002A4A121D1268012A01D1012000E0002034
:1021700045E0264A08321268012A01D1012000E018
:1021800000203CE0224A1268012A01D1012000E02F
:10219000002034E01F4A1268012A01D1012000E02A
:1021A00000202CE0194A203A1268012A01D10120AE
:1021B00000E0002023E0154A1C3A1268012A01D1F0
:1021C000012000E000201AE0104A183A1268012AA3
:1021D00001D1012000E0002011E00C4A143A1268FD
:1021E000012A01D1012000E0002008E0074A103A4E
:1021F0001268012A01D1012000E0002000BF00BFC9
:1022000070470000088240421C0242422082414244
:102210003C024042300241422DE9F0478EB08246F6
:102220000E4615460024A8E0285DB02837DB285D5F
:10223000F72834DC601C285CA12830DB285DB0382E
:102240005E2110FB01F050490860601C285C00F220
:10225000AD20096808444C49086008460068400100
:10226000086008460068C0F3074708460088C0F3C6
:102270000728084690F80090202006AB4A464146C1
:102280000090384600F000FB06AA3146504600F0A8
:10229000CDF8A01CC4B206F11000C6B26DE0285DF6
:1022A000A12836DB285DA32833DC601C285CA1282C
:1022B0002FDB285DA1385E2110FB01F03249086058
:1022C000601C285CA138096808442F49086008464A
:1022D00000684001086008460068C0F307470846E8
:1022E0000088C0F30728084690F80090202006AB2D
:1022F0004A4641460090384600F0C6FA06AA3146E2
:10230000504600F093F8A01CC4B206F11000C6B20B
:1023100033E0285D20282EDB285D7E282BDC285D1D
:10232000203819490860084600680001086008461E
:102330000068164908441449086008460068C0F35C
:10234000074708460088C0F30728084690F8009021
:10235000102002AB4A4641460090384600F094FAFD
:1023600002AA3146504600F08FF8601CC4B206F154
:102370000800C6B201E0601CC4B2285D00283FF727
:1023800053AF0EB0BDE8F087F405002080CF030006
:10239000F8B505460E4614460A2094FBF0F100FB02
:1023A00011403030C0B28DF8000000208DF80100DF
:1023B0006A4631462846FFF72FFFF8BD7CB5054633
:1023C0000E4614464FF47A7094FBF0F03030C0B2F1
:1023D0008DF800004FF47A7094FBF0F100FB11408F
:1023E000642190FBF1F03030C0B28DF80100642020
:1023F00094FBF0F100FB11400A2190FBF1F030302A
:10240000C0B28DF802000A2094FBF0F100FB1140ED
:102410003030C0B28DF8030000208DF804006A4609
:1024200031462846FFF7F8FE7CBD00002DE9F0415B
:1024300004460E46154604211248FEF789FB012189
:102440001048FEF787FB4FF0020812E0E1B2F0B24D
:1024500000F05EFA002705E0287800F03DFD6D1CD5
:10246000781C87B2102FF7DB641CA8F101001FFA5B
:1024700080F8B8F1000FE9DC04210248FEF76AFB9E
:10248000BDE8F081001002402DE9F04104460E46FF
:10249000154604211048FEF75BFB4FF0020812E0DE
:1024A000E1B2304600F034FA002705E0287800F069
:1024B00013FD6D1C781C87B2082FF7DB641CA8F194
:1024C00001001FFA80F8B8F1000FE9DC042102488E
:1024D000FEF740FBBDE8F0810010024010B500F0AF
:1024E0001DFB0AE064214842FEF736FB00F010FBBA
:1024F000B0F5C87F00DC00E000E0F3E700BF10BDEE
:102500000120014908607047AC02424200200149A5
:1025100008607047AC02424270B52DED088B04464E
:10252000194830F81400194921F81400084630F809
:102530001460174830F81450304600F064FE41EC47
:102540001B0B9FED140B53EC102B00F06FFE41ECB6
:10255000190B284600F057FE41EC1B0B9FED0F0BAB
:1025600053EC102B00F062FE41EC1A0B53EC192BCC
:1025700000F074FD41EC180B00F018FE024921F840
:102580001400BDEC088B70BD4C0600206C060020CA
:102590002C060020989999999999C93F9A999999E7
:1025A0009999E93F10B5FFF743FC0C286FD2DFE89B
:1025B00000F0D506192C3F516376889CAFC200F01D
:1025C000ADFA0CE000F014F918B900F0A1FA5028A7
:1025D00000DD05E06FF0F901FA20FEF7BDFAF1E742
:1025E00000BFC0E000F09AFA0CE000F001F920B959
:1025F00000F08EFAB0F5967F00DD04E096210846E3
:10260000FEF7AAFAF1E700BFADE000F087FA0CE0B0
:1026100000F0EEF820B900F07BFAB0F5967F00DD0F
:1026200004E096210846FEF797FAF1E700BF9AE02A
:1026300000F074FA0BE000F0DBF818B900F068FA6B
:10264000502800DD04E0FA214842FEF785FAF2E75F
:1026500000BF88E000F062FA0BE000F0C9F818B99A
:1026600000F056FA462800DD04E0FA214842FEF761
:1026700073FAF2E700BF76E000F050FA0CE000F0E9
:10268000B7F818B900F044FA642801DD05E065E008
:10269000FA214842FEF760FAF1E700BF63E000F07C
:1026A0003DFA0BE000F0A4F818B900F031FA642804
:1026B00000DD04E0FA214842FEF74EFAF2E700BFDF
:1026C00051E000F02BFA0DE000F092F820B900F094
:1026D0001FFAB0F5487F00DD05E06FF0F901FA2040
:1026E000FEF73AFAF0E700BF3DE000F017FA0CE021
:1026F00000F07EF818B900F00BFA642800DD05E060
:102700006FF0F901FA20FEF727FAF1E700BF2AE09F
:1027100000F004FA0CE000F06BF818B900F0F8F9DA
:10272000642800DD05E06FF095019620FEF714FAAD
:10273000F1E700BF17E000F0F1F90CE000F058F805
:1027400018B900F0E5F9642800DD05E06FF0F90143
:10275000FA20FEF701FAF1E700BF04E06421084621
:10276000FEF7FAF900BF00BF10BD10B500F0D6F9B2
:1027700009E06FF063010846FEF7EEF900F0C8F9D2
:10278000C82800DD00E0F4E700BFFFF76BFB10BDD9
:1027900070B5002420211548FEF7DCF900BFFEF7D4
:1027A0004DF900251CE002211048FEF7D3F900BFC7
:1027B00020210E48FEF7CCF900BF6006040E02216E
:1027C0000A48FEF7BCF918B1601CC4B200BF01E0B2
:1027D000E4B200BF20210548FEF7BCF9681CC5B271
:1027E000082DE0DBFEF714F9204670BD0010024012
:1027F00010B50120FFF714FC012804D00220FFF7D8
:102800000FFC012832D10120FFF70AFC01280DD16D
:102810000220FFF705FC48B917A201210220FFF7AB
:10282000FBFCFFF7A2FFFFF72FFB16E00120FFF7ED
:10283000F7FB70B90220FFF7F3FB012809D110A2C2
:1028400001210220FFF7E8FCFFF78FFFFFF72EFBC7
:1028500003E0FFF78AFFFFF741FE64210846FEF719
:102860007BF96420FFF79AFB012010BD6421084624
:10287000FEF772F90020F8E72D2D2DD7F3B2E00016
:10288000D3D2B2E02D2D2D002DE9F04780460D4624
:1028900016461F46DDF8209001211348FEF758F92F
:1028A00004211148FEF756F920210F48FEF750F990
:1028B000032000F03DF9404600F03AF9284600F0C8
:1028C00037F9304600F034F9002404E0FFF760FFE8
:1028D0003855601CC4B24C45F8DB01210248FEF7B4
:1028E00039F9BDE8F08700000010024010B5044639
:1028F000012C04D101210548FEF7A9FF04E01CB911
:1029000000210248FEF7A3FF10BD000000080040B0
:1029100070B504460D4605F1B00000F0ABFA102189
:1029200041EA141000F0A6FA04F00F0000F0A2FA39
:1029300070BD00000120014908607047B0024042AC
:102940000020014908607047B0024042FFF7F4F9E7
:1029500000F04CF957E00020FEF7C8F92A4908704A
:10296000084600782949087029A201210020FFF7B4
:1029700053FC2AA201210220FFF74EFC2AA20121CA
:102980000420FFF749FC2BA201210620FFF744FC9D
:102990000020FEF7ABF91C4908700846007818B112
:1029A000084600781949087018480078012802D1B3
:1029B00000F060F927E015480078022807D1FFF7FA
:1029C00097FA03E0FFF714FFFFF7ECFDFAE70F4873
:1029D000007803280FD1FFF78BFA0BE0FFF790FD8B
:1029E0004FF47A70FFF7DAFAFFF790FD4FF47A7040
:1029F000FFF7D4FAF2E705480078042803D1FFF77F
:102A000077FA00F017FAA6E70C0600200D06002062
:102A100031A1A2BCECB2E2C4A3CABD0032A1A2D6CD
:102A2000F7B3CCD0F200000033A1A2B2E2CAD4B313
:102A3000CCD0F20034A1A2B7B5BBD80070B5054622
:102A40000C46B4F57A7F01DD4FF47A7414F57A7F81
:102A500000DA2C4C9DB9002C08DB21462A48FFF7F0
:102A600068F800212848FFF766F849E061422648E7
:102A7000FFF761F800212448FFF75BF840E0012DE3
:102A800013D1002C08DB21461F48FFF756F8002120
:102A90001D48FFF754F833E061421B48FFF74FF839
:102AA00000211948FFF749F82AE0022D13D1002C24
:102AB00008DB21461548FFF73CF800211348FFF7D3
:102AC0003AF81DE061421148FFF735F800210F4840
:102AD000FFF72FF814E0032D12D1002C08DB21465C
:102AE0000A48FFF72AF800210848FFF728F807E00E
:102AF00061420648FFF723F800210448FFF71DF85C
:102B000070BD000018FCFFFF0008004000040040FA
:102B10000148008870470000F805002000200249A5
:102B20000880024908807047F8050020FA05002057
:102B300070B5044600251BE004F0800028B1102188
:102B40000D48FEF707F800BF04E010210A48FDF722
:102B5000FFFF00BF6006040E20210748FDF7F8FFC5
:102B600000BF20210448FDF7F5FF00BF681CC5B277
:102B7000082DE1DB70BD00000010024070B5054675
:102B80000C46012D23D0022D17D0032D0BD0042D80
:102B900027D104EB440000EB0410C0F57B61124820
:102BA000FEF7C7FF1DE004EB440000EB0410C0F586
:102BB0007B610D48FEF7BFFF13E004EB440000EB20
:102BC0000410C0F57B610848FEF7B7FF09E004EB8D
:102BD000440000EB0410C0F57B610348FEF7AFFF33
:102BE00000BF00BF70BD00000008004010B50CA27F
:102BF00001210220FFF710FB4FF4FA60FFF7CEF936
:102C0000FFF765F9FFF79CFE4FF49670FFF7C6F9E2
:102C1000FFF75DF9FFF78EFEFFF76AF910BD0000C0
:102C200020205468652057617272696F720000003D
:102C300010B5002004490880044908800121880754
:102C4000FEF705FE10BD0000F8050020FA05002083
:102C500010B5002004490880044908800121044877
:102C6000FEF7F5FD10BD0000FC050020FE0500206C
:102C7000000C004070B50025FFF73AF9A3E053A21D
:102C800001210020FFF7C8FA54A201210220FFF71A
:102C9000C3FA55A201210420FFF7BEFA55A2012173
:102CA0000620FFF7B9FA0020FEF720F80546012DAF
:102CB00004D1FDF7FFFBFFF71BF984E0022D29D1BA
:102CC00027E0FFF715F9002421E04CA201210020A4
:102CD000FFF7A2FA4CA201210220FFF79DFAA2B24F
:102CE0001E210420FFF76AFB21460120FFF746FF63
:102CF00021460220FFF742FF6420FFF74FF9FEF75D
:102D000063FF012803D1641C6420FFF747F9B42C4A
:102D1000DBDDD6E7032D51D14FE0FFF7E9F80024C2
:102D200048E03CA201210020FFF776FA3CA20121F5
:102D30000220FFF771FA002C0ADB3CA214210420C8
:102D4000FFF76AFAA2B21E210420FFF737FB0AE060
:102D500037A214210420FFF75FFA604282B21E21DD
:102D60000420FFF72BFB21462046FDF7F5FE00204F
:102D7000FDF7BCFF0546012D07D1B4F57A7F04DAD3
:102D800032346420FFF70AF913E0022D07D114F55D
:102D90007A7F04DD323C6420FFF700F909E0032D5F
:102DA00004D164426420FFF7F9F802E0042D00D159
:102DB00007E00025B4F57A7FB3DDAEE7042D02D13C
:102DC00000BF002500E05AE700BF70BD31A1A2B4EA
:102DD000ABB8D0C6F7BCECB2E200000032A1A2B69C
:102DE000E6BBFABCECB2E20033A1A2B5E7BBFABC89
:102DF000ECB2E20034A1A2B7B5BBD800B4A5C3FEC3
:102E0000D2D4D4F6BCD30000B6E6BBFA50574D3A44
:102E100000000000B0B4BCFCD2D4B8C4B1E40000DF
:102E2000B5E7BBFAD7AACBD93A00000020000000D2
:102E30002D00000010B500240AA200210220FFF797
:102E4000EBF90CE00020FDF751FF0446022C06D1FF
:102E50004FF47A70FFF7A2F8FFF74AF800E0F1E7C5
:102E600000BF10BD546F7563682053656E736F7239
:102E70000000000070B5044608211648FDF768FE02
:102E800004211448FDF764FE002517E020211148B5
:102E9000FDF75EFE04F0800020B110210D48FDF723
:102EA00059FE03E010210B48FDF752FE202109488E
:102EB000FDF750FE00BF6400681CC5B2082DE5DBBD
:102EC00008210448FDF746FE04210248FDF742FEB2
:102ED00070BD00000010024070B50446082116487D
:102EE000FDF738FE04211448FDF732FE002517E0F7
:102EF00020211148FDF72CFE04F0800020B11021A4
:102F00000D48FDF727FE03E010210B48FDF720FEDA
:102F100020210948FDF71EFE00BF6400681CC5B2F1
:102F2000082DE5DB08210448FDF714FE04210248C2
:102F3000FDF710FE70BD00000010024030B587B0F4
:102F400005460C460121C804FDF7D4FF01214804C1
:102F5000FDF7D0FF01218804FDF7CCFF07220621F1
:102F60003A48FDF7C9FD072211463848FDF7C4FD70
:102F7000C020059002208DF818008DF8190000205F
:102F80008DF81A0001208DF81B0005A92F48FDF7C8
:102F90006BFD012D15D101940020ADF80800ADF8AE
:102FA0000A00ADF80C00ADF810000C20ADF80E00D2
:102FB00001A92748FEF754FE01212548FEF71FFE10
:102FC0002EE0022D15D101940020ADF80800ADF8D7
:102FD0000A00ADF80C00ADF810000C20ADF80E00A2
:102FE00001A91C48FEF73CFE01211B48FEF707FE25
:102FF00016E0032D14D101940020ADF80800ADF8BF
:103000000A00ADF80C00ADF810000C20ADF80E0071
:1030100001A90F48FEF724FE01210E48FEF7EFFD3F
:10302000012240F225510A48FEF7F5FD27208DF8D0
:10303000000003208DF8010001208DF802008DF8BA
:1030400003006846FDF7DAFE07B030BD0004024019
:103050000048004000440040004C004010B591EA98
:10306000030F48BF83F0004300F1E681841A71EB3F
:10307000030C05D2121943EB0C03001B61EB0C018E
:10308000DFF824E14FEA1154A4EB135C1EEA430F6E
:1030900018BF9EEA445F73D023EA0E03DCF1200ED2
:1030A00021EA045143F4801332D322FA0CFE10EBD0
:1030B0000E0023FA0CFE41EB0E01CCF1200E03FAB8
:1030C0000EFE10EB0E0051F10001B1F5801FCCF1A6
:1030D000200E32D201EB045112FA0EF2BDE810407C
:1030E00058BF7047401C38BF5FEA420218BF7047A4
:1030F000002814BF20F0010041F100014FEA410314
:1031000013F5001F38BF7047A1F1C04100F086B928
:10311000012A43EB0302ACF1200CDCF11F0E32BF9D
:103120004FF0000E23FA0CF310EB030041EB0451B7
:10313000B4EB115FD0D0A1EB045101F58011490827
:103140005FEA300001EB04510ED350F1000038BFAC
:1031500012FA0EFE08D1BDE81040C9E7401C38BF86
:103160005FEA4202CAD1C3E7BDE810404FEA41031B
:1031700013F5001F38BF7047A1F1C04100F04EB9F0
:103180009EEA445F08D011EA5E0FBDE8104004BF1C
:1031900001F0004100207047BDE8104070B500F01C
:1031A000EFF800BF64FBBE3E0000E0FF4FEA1153A2
:1031B000A3F58063D3F11E03A8BFD3F1200C08DB75
:1031C0004FF0004242EAC12252EA505232FA03F072
:1031D000704709420BD4102BC4BF0020704703F581
:1031E000787CBCF1FF3F05D04FF0FF3070474FF0C7
:1031F0000000704770B500F0C3F800BF499224800A
:1032000000207047F0E7B0FA80F310FA03F10AD01B
:10321000C3F11D0303F580634FEA41504FEA0352A7
:1032200002EBD12170474FF000007047DFF848C132
:1032300070B51CEA111E1EBF1CEA13159EEA0C0F86
:1032400095EA0C0F00F06F8081EA030423EA4C1327
:103250004EEAD47E21EA4C1141F4801143F48013EC
:10326000AE44A1FB024CA0FB0365AEF17F7E361994
:1032700055EB0C05A1FB034C4CF10003A0FB021C19
:1032800016EB0C06654153F10003094218BF46F0E6
:10329000010613F4007F0BD14FEA03314FEA0530EA
:1032A000340341EA155140EA16506FF003020AE078
:1032B0004FEAC3214FEAC520F40241EA555140EAE2
:1032C00056506FF0020202EB2E4201EB025585EAE6
:1032D000CE710AD05FEA440C18BF24F0004450F1CC
:1032E000000041F1000120EAD47040F2FE7C62450A
:1032F00000D270BDA84214BF4FF080444FF040444C
:10330000002E08BF0024BEF1806FA8BFA1F1C0410C
:10331000BDE8704080F282804FF0000001F1C041B2
:1033200001F0004170479EEA0C0F0CEA131518BF1C
:1033300095EA0C0F06D04FF0000081EA030E0EF064
:10334000004170BD00F01CF88900013E00F007B894
:1033500000F009B84FEA430C5FEA5C5C08D081EAF0
:10336000030100F05BB84FEA410C5FEA5C5CF6D108
:103370004FF00000014970470000FF070000F87F90
:103380000EF1020E2EF0030E5EF8046B364205D4E9
:10339000012A43EB030515F5001F12D8012841EB64
:1033A000010C1CF5001F0CD80ED14FEAD17C15F58D
:1033B000001F0CEB4C0C0CF1020C08BF4CEBD37C47
:1033C00004E04FF0080C01E04FEAD37C0CEB4C0515
:1033D00026FA05F606F00706B6F1040C06D20EEB47
:1033E000860CBDE870404CF0010C6047DFE80CF043
:1033F000090B02024FF000414FF00000A1F500213F
:1034000070BD19461046012851EB010418BFD4F5D0
:10341000001484BF002001F0004170BD0808A0F531
:1034200000114FEA3101704710B591EA030F48BF10
:1034300083F000433FF51AAE841A71EB030C07D2F8
:1034400012198CF0004C43EB0C03001B61EB0C01D8
:10345000DFF8A4E14FEA1154A4EB135C1EEA430F1A
:1034600018BF9EEA445F00F0B08023EA6E03524228
:1034700021EA0451C3EB6E0338BF5B1EDCF1200E62
:1034800025D322FA0CFE10EB0E0043FA0CFE41EBA2
:103490000E01CCF1200E03FA0EFE10EB0E0051F1DE
:1034A0000001CCF1200E29D412FA0EF201EB0451E6
:1034B000BDE8104058BF7047401C1CBFB2F1004F20
:1034C000704700280CBF491C20F00100704712EB28
:1034D000020E43EB030218BF4FF0010E4EEA420208
:1034E000ACF1200CDCF11E0E54D943FA0CFE10EBAB
:1034F0000E0051F1FF31CCF11E0ED5D50EF1010EAB
:1035000012FA0EFE404141EB010101EB445C5FEA1F
:103510005C5C10D910EBDE7001EB045138BFBEF1DA
:10352000004FBDE8104018BF704700280CBF491C71
:1035300020F00100704730D24FEAD42C11F5001171
:1035400024F400641BD0B1FA81F20B3AA41AA41E31
:10355000D2F12003914030FA03F31943904001EB7C
:10356000CC71002C01EB0451BDE81040A8BF70479E
:1035700001F1C0414FF0000001F000417047B0FA86
:1035800080F310FA03F100D110BDE41A173C48058E
:10359000C90AE4E701EB045110BD491001EB0451E5
:1035A000BDE810404FEA300002E04FF000017047E4
:1035B0004A0008BF0042F8D0B2F5001F28BF70478C
:1035C00001F000414FF0000070479EEA445F07D0D1
:1035D00011EA5E0FBDE8104004BF002100207047D3
:1035E000BDE8104070B5FFF7CBFE00BF40DFF63EF0
:1035F00083F00041104670470000E0FF4FF040703C
:10360000E1EE100A70470000283600080000002094
:103610002C060000C4010008A83900082C06002070
:10362000C40600002002000802160172F84333307D
:103630001C100C0603912C40C07803112C043F048D
:1036400003212D7088FC0829261820FF211E14F064
:1036500008F033E0184D211C031E11338870000C54
:10366000101E2123241927211010160E45E01804DE
:103670000225071820403D020418E0692C20180795
:1036800007174080F08040403F0202010F010228EE
:1036900042F01D0101011F04912B80B066B1191D7C
:1036A0002901913A30CE492C146018043C60180668
:1036B0001D1EE010080810721F0F102020100FF0C0
:1036C0005310F83620203F20203C700808C21E30DE
:1036D00028242221441E3008888848082E182020DB
:1036E0002011CC3BC0203227070424243F241AF8A1
:1036F000202308084B19212036E0108888184B0F2A
:1037000011101E380808C8382021523F1A702E297F
:10371000608F1C222121221C90111D312222119028
:103720001961CAC0C26A80C659081C4020105017CF
:103730000102040810204A4001114A040121191510
:103740002A403219251B0402F21B7048D13AF0506E
:103750001A360F1EC030C828E8702808071827241A
:1037600023140B6F2A387E280D203C2302022738B1
:103770002008F888889F4B203FF01BC0303F1B0873
:103780003830191019781B08F80F194039201B1010
:103790000F103E8888E8081010AC23201810112A5A
:1037A000035E2940223829402C221E024019A41809
:1037B00009F808203F21010121252A0852298129E1
:1037C000424149112EC08080807F0E2FF888C0288A
:1037D0001808501C0126382F2940292F29801B202A
:1037E000301012F81AF81413203F190229204B3018
:1037F000C0601A2074123F4BE010B06B0F10B0295C
:10380000D01AF0301980220179203F182424385032
:103810004FC04C888870C0140C30204B7088C11782
:1038200038202121221C3A189F4A188239A049D0F9
:10383000112A1F90121F240878881BC838151C07EE
:10384000380E60191A1AF8201114033C0714073CAB
:10385000034814081868808068180820302C030377
:103860002C30200838C82F5950298F29102F203884
:1038700026212020681145FE020202257F4040409B
:103880001A0CE0611C0106380B191D42FE191D526D
:103890007F1A04120211045A80011930D91D3916F9
:1038A00021180819242222223F20AB390F115F3F33
:1038B000112020110E21311A0E104B2011104B88AF
:1038C000F8102A10B359401A1F3F2B22130F16F07D
:1038D000888888181A20D029D1497A21176B9494A6
:1038E0009493603960190F4C203F21F354809898CD
:1038F000793059121AC02719D1193039311F203F98
:1039000024022D30212A0812893069D7294B290336
:10391000190BC96079A019BF2B201FDD390F9C80BE
:10392000FFA1E0191229D03BA0FF0C395019411218
:10393000208A01C01B3324012A190F3AE041395271
:10394000290F392349603C103F202C29053F010EE7
:103950003008060170291038080F300C030C300FA6
:103960002C49A14E312E0E31200C29621D818E7002
:10397000183059D1215721302C22213055807C021A
:1039800002443F404072FF39083C02027C8F5440A1
:10399000403F000834060101020204042D01020325
:0839A0000404050006070809F4
:040000050800018965
:00000001FF
