:020000040800F2
:10000000700D00206902000829110008B10C0008D9
:1000100025110008410800087D20000800000000AC
:100020000000000000000000000000009116000821
:100030000D0A00080000000003120008A9170008BC
:10004000830200088302000883020008830200087C
:10005000830200088302000883020008830200086C
:10006000830200088302000883020008830200085C
:10007000830200088302000883020008830200084C
:10008000830200088302000883020008830200083C
:10009000830200088302000883020008830200082C
:1000A000830200088302000883020008830200081C
:1000B0001518000883020008830200088302000864
:1000C00083020008830200088302000883020008FC
:1000D000830200088302000883020008451F00080D
:1000E00083020008830200088302000883020008DC
:1000F00083020008830200088302000883020008CC
:100100008302000883020008151B00088302000810
:1001100083020008830200088302000883020008AB
:10012000830200088302000883020008830200089B
:10013000830200088302000883020008830200088B
:10014000830200088302000883020008830200087B
:10015000830200088302000883020008830200086B
:10016000830200088302000883020008830200085B
:10017000830200088302000883020008830200084B
:10018000830200088302000800F002F800F05CF827
:100190000AA090E8000C82448344AAF10107DA45E2
:1001A00001D100F051F8AFF2090EBAE80F0013F0D8
:1001B000010F18BFFB1A43F001031847543C00001D
:1001C000743C00000A444FF0000C10F8013B13F09F
:1001D000070408BF10F8014B1D1108BF10F8015BA0
:1001E000641E05D010F8016B641E01F8016BF9D193
:1001F00013F0080F1EBF10F8014BAD1C0C1B09D1EA
:100200006D1E58BF01F801CBFAD505E014F8016B5B
:1002100001F8016B6D1EF9D59142D6D370470000ED
:100220000023002400250026103A28BF78C1FBD8FF
:10023000520728BF30C148BF0B6070471FB503F09D
:10024000E1FD1FBD10B510BD00F033F81146FFF7FA
:10025000F5FF02F025FE00F051F803B4FFF7F2FFBE
:1002600003BC01F04FFF00000948804709480047E0
:10027000FEE7FEE7FEE7FEE7FEE7FEE7FEE7FEE756
:10028000FEE7FEE704480549054A064B70470000B3
:10029000AD1700088901000870070020700D0020CC
:1002A0007009002070090020704770477047704740
:1002B0007047754600F028F8AE460500694653467B
:1002C00020F00700854618B020B5FFF7DBFFBDE83A
:1002D00020404FF000064FF000074FF000084FF0AD
:1002E000000B21F00701AC46ACE8C009ACE8C0093E
:1002F000ACE8C009ACE8C0098D4670470446AFF3CE
:1003000000802046FFF7A9FF004870471007002033
:1003100021B1826842F00102826003E0826822F02B
:1003200001028260704700000021084A1168084AF3
:100330001140D0E900231A4383681A43C3681A4363
:100340001143044AC2F8041370470000042301401B
:10035000E030FCFF0020014021B1826842F480724D
:10036000826003E0826822F480728260704721B16B
:10037000826842F40072826003E0826822F40072B4
:100380008260704710B50121080200F06BFF002168
:100390004FF4807000F066FF10BD000030B50246DB
:1003A000002000235068104C20400D790C6844EA6E
:1003B00005242043506090680C4C2040D1E9035440
:1003C0002C438D682C434D7944EA450420439060CA
:1003D000D06A20F470000C7D641EE4B2234340EA2E
:1003E0000350D06230BD0000FFFEFFFCFDF7FFC0F0
:1003F000F0B504460D4600200021092D11DDE0680E
:10040000A5F10A0606EB4607072606FA07F1884318
:10041000A5F10A0606EB460603FA06F10843E0607A
:100420000CE0206905EB4507072606FA07F188432B
:1004300005EB450603FA06F108432061072A0FDAA7
:10044000606B561E06EB86071F2606FA07F18843E7
:10045000561E06EB860605FA06F10843606322E0A5
:100460000D2A0FDA206BD61F06EB86071F2606FA29
:1004700007F18843D61F06EB860605FA06F1084306
:10048000206310E0E06AA2F10D0606EB86071F2646
:1004900006FA07F18843A2F10D0606EB860605FA77
:1004A00006F10843E062F0BD816841F0804181605F
:1004B000704700002DE9F0410124002600250127A6
:1004C00065E1002000F0AAFD06460EB1344637462D
:1004D000012F26D101F0BEFEAFA20121002002F0C3
:1004E0007BF8B2A20121022002F076F8B0A201212D
:1004F000042002F071F8AFA20121062002F06CF88E
:10050000ADA24221022002F067F8ACA242210420F1
:1005100002F062F8AAA24221062002F05DF800274C
:1005200050E0022F26D101F095FE9BA20121002070
:1005300002F052F8A3A20121022002F04DF8A2A27B
:100540000121042002F048F8A0A20121062002F0B7
:1005500043F89FA24221022002F03EF89EA24221CF
:10056000042002F039F89EA24221062002F034F85D
:10057000002727E0032F25D101F06CFE86A2012180
:10058000002002F029F898A20121022002F024F8AC
:1005900097A20121042002F01FF897A20121062052
:1005A00002F01AF895A24721022002F015F894A251
:1005B0004721042002F010F892A24721062002F001
:1005C0000BF80027681CC5B2642D00DB0025052050
:1005D00095FBF0F100FB115028BB032C23D1012027
:1005E00001F0FEFE804642461A21062002F0B0F8D5
:1005F000022001F0F5FE804642466021022002F012
:10060000A7F8032001F0ECFE80464246602104205A
:1006100002F09EF8042001F0E3FE8046424660218D
:10062000062002F095F8002D71D1012C36D1002062
:1006300001F06AFD804642461A21022002F09EF82F
:10064000012001F061FD804642461A21042002F09B
:1006500095F8022001F058FD804642461A210620F6
:1006600002F08CF8032001F04FFD804642466021E5
:10067000022002F083F8042001F046FD8046424645
:100680006021042002F07AF8052001F03DFD80464B
:1006900042466021062002F071F875E0022C37D145
:1006A000062001F031FD804642461A21022002F068
:1006B00065F8072001F028FD804642461A210420F3
:1006C00002F05CF8082001F01FFD804642461A2126
:1006D000062002F053F8092001F016FD804642463C
:1006E0006021022002F04AF80A2001F00DFD804648
:1006F00042466021042002F041F80B2001F004FD85
:10070000804642466021062002F038F83CE038E09E
:10071000032C39D10C2001F0F7FC804642461F2102
:10072000022002F02BF80D2001F0EEFC804642463C
:100730001F21042002F022F8012001F051FE804622
:1007400042461A21062002F003F8022001F048FE7A
:10075000804642466021022001F0FAFF032001F0AA
:100760003FFE804642466021042001F0F1FF042054
:1007700001F036FE804642466021062001F0E8FF87
:1007800002E0042C00D103E0052001F0C1FD98E651
:1007900000BFBDE8F0810000202D41442044657475
:1007A000656374696F6E2D200000000041303D00CC
:1007B00041313D0041323D0041333D0041343D0077
:1007C00041353D0041363D0041373D0041383D0057
:1007D0004139203D000000004131303D0000000063
:1007E0004131313D000000004131323D0000000048
:1007F0004131333D0000000044313D0044323D00B2
:1008000044333D0044343D001CB54FF4006000907B
:1008100001208DF8040000208DF8060003208DF8DB
:10082000050001208DF807006946044800F0ACF986
:100830004FF40061014800F01DFA1CBD000C02409D
:1008400000BFFEE721B1026842F00102026003E04E
:10085000026822F00102026070470000016821F086
:10086000010101600021016041608160C16001619E
:10087000212141614A49884204D13D21484A103A28
:1008800091608CE046491831884205D14FF474617B
:10089000434A103A916082E041493031884205D1A3
:1008A0004FF474113E4A103A916078E03C49483167
:1008B000884205D14FF07461394A103A91606EE078
:1008C00037496031884204D13649354A103AD160FF
:1008D00065E033497831884204D13349304A103ACF
:1008E000D1605CE02E499031884204D12F492C4AD6
:1008F000103AD16053E02A49A831884205D14FF01F
:100900003D51274A103AD16049E02949884204D133
:100910003D21274A083A116041E0254918318842B3
:1009200005D14FF47461224A083A116037E020493A
:100930003031884205D14FF474111D4A083A1160D4
:100940002DE01B494831884205D14FF07461184AA7
:10095000083A116023E016496031884204D11149F8
:10096000134A121F11601AE011497831884204D1EC
:100970000D490F4A121F116011E00D499031884254
:1009800004D10A490A4A121F116008E00849A83137
:10099000884204D14FF03D51054A121F1160704743
:1009A000106002403D000020400F002000003D206C
:1009B0001064024010B500220268134B1A40CC6844
:1009C0000B6823434C6923438C692343CC6923433D
:1009D0000C6A23434C6A23438C6A23434C6B2343A6
:1009E0008C6B23431A430260426922F00702D1E96B
:1009F0000B3423431A4342610B6943604B688360A5
:100A00008B68C36010BD00003F801CF07047000081
:100A100010B587E0082001F077FBB0F57A7F28DD7C
:100A20000C2001F071FBB0F57A7F22DA0D2001F085
:100A30006BFBB0F57A7F1CDA0A2001F065FBB0F59C
:100A4000FA7F05DB062001F05FFBB0F5FA7F10DAD4
:100A50003649084600F010F900BF40F2DC5001F0C2
:100A600057FC002001F050FB40F6FC01884259DDA4
:100A7000F3E7012001F048FBC82815DA022001F055
:100A800043FBB0F5FA6F0FDD02F040FB0AE002F025
:100A9000FBFAB0F57A7F00DD05E06FF095010846BE
:100AA00000F0EAF8F3E73DE0022001F02DFBB0F59D
:100AB000FA6F14DD032001F027FBC8280FDA02F0DB
:100AC00025FB0AE002F0E0FAB0F57A7F00DD05E0F0
:100AD0006FF09501084600F0CFF8F3E722E00C2014
:100AE00001F012FBB0F5FA6F14DD0D2001F00CFBE4
:100AF000B0F5FA6F0EDD02F009FB09E002F0C4FA6E
:100B0000B0F57A7F00DD04E09621084600F0B4F8E5
:100B1000F4E707E002F004FB00B904E0FA214842E0
:100B200000F0AAF876E700BF10BD00000CFEFFFF42
:100B30001CB50220009001208DF804008DF80600FD
:100B400003208DF8050001208DF807006946024852
:100B500000F01AF81CBD0000001002401CB5022075
:100B6000009000208DF8040002208DF8070003207B
:100B70008DF8050001208DF807006946014800F056
:100B800003F81CBD00100240F0B50A460021002306
:100B9000002400BF3DE0012505FA01F3156805EAD0
:100BA00003049C4234D105684F000326BE40B54380
:100BB000056015794E00B540066835430560157926
:100BC000012D02D01579022D16D185684F0003261C
:100BD000BE40B543856055794E00B54086683543C3
:100BE0008560456801268E40B54345604568967925
:100BF0008E40B6B235434560C5684F000326BE40FF
:100C0000B543C560D5794E00B540C6683543C5606B
:100C1000491C1029BFD3F0BDF0B5002300244D07B7
:100C2000ED0E02FA05F3CE1000F1200555F826501E
:100C30004E07F70E0F26BE40B543CF1000F1200639
:100C400046F82750CE1000F1200555F8265045EA09
:100C50000304CE1000F1200545F82640F0BD024601
:100C6000002013690B400BB1012000E00020704709
:100C7000418370470183704770B504460D460A48AA
:100C800004600A4805602146002002F093F92146DD
:100C9000012002F08FF92946022002F08BF9294643
:100CA000032002F087F970BD04060020080600202A
:100CB00000BFFEE710B500200A49086000F06EFB97
:100CC00000200949C1F89002022001F03DFB0120FB
:100CD00004490860022001F037FB00200249C1F8F6
:100CE0008C0210BD8C824042008040421CB5012124
:100CF000022000F087FA1820009001208DF80400EF
:100D000000208DF8060002208DF805006946024893
:100D1000FFF73AFF1CBD00000004024010B50020A0
:100D20000A49086000F03AFB01200949C1F8900225
:100D3000022001F009FB012004490860022001F0B3
:100D400003FB00200249C1F88C0210BD8C82404296
:100D50000080404270B50546002400F007FB0026E5
:100D600016E000200F490860022001F0EDFA012092
:100D70000D49C1F88C026006040E0A487C380068F0
:100D800008B1601CC4B2012001F0DEFA701CC6B2CA
:100D9000082EE6DB15B9FFF7C1FF01E0FFF78AFF78
:100DA000204670BD8C8240420080404270B50446AF
:100DB00000F0F4FA00200F490860002517E0E00970
:100DC0000C49091D08606006040E022001F0BCFAFF
:100DD00001200949C1F88C02022001F0B5FA002077
:100DE00004490860022001F0AFFA681CC5B2082D62
:100DF000E5DB70BD8C8240420080404210B500F0BF
:100E0000CDFA0120094908600949C1F88C02052082
:100E100001F09AFA002005490860052001F094FAD3
:100E200000200349C1F88C0210BD000090824042AE
:100E30000080404210B500F0B1FA00200849086077
:100E40000849C1F89002052001F07EFA012004490A
:100E500008600449C1F89002052001F075FA10BD40
:100E60008C8240420080404210B5002400F07EFA9F
:100E700001200E49086001F067FA01200C49C1F811
:100E80008C0201F061FA07E0601CC4B2FA2C03DDA9
:100E9000FFF7D0FF012010BD04488038006800280B
:100EA000F2D10249091F086000BFF4E79082404276
:100EB0000080404210B54FF4C87001F0FEF900F018
:100EC0007BF904213048FFF7D3FE01212E48FFF7BC
:100ED000D1FEAE2002F012FB202002F00FFB10200A
:100EE00002F00CFBB02002F009FBC82002F006FB68
:100EF000002002F003FB102002F000FB402002F073
:100F0000FDFA812002F0FAFAFF2002F0F7FAA120A0
:100F100002F0F4FAA62002F0F1FAA82002F0EEFAAC
:100F20003F2002F0EBFAA42002F0E8FAD32002F00E
:100F3000E5FA002002F0E2FAD52002F0DFFAF02014
:100F400002F0DCFAD92002F0D9FA222002F0D6FA17
:100F5000DA2002F0D3FA122002F0D0FADB2002F0FD
:100F6000CDFA202002F0CAFA8D2002F0C7FA142030
:100F700002F0C4FAAF2002F0C1FA04210248FFF7E0
:100F800079FE01F067F910BD001002401CB54FF466
:100F90000070009000208DF8040003208DF80500FB
:100FA00001208DF8070069461848FFF7EDFD802005
:100FB000009000208DF8040003208DF8050001202A
:100FC0008DF8070069461248FFF7DEFD40200090CB
:100FD00000208DF8040003208DF8050001208DF815
:100FE000070069460B48FFF7CFFD4FF40050009013
:100FF00000208DF8040003208DF8050001208DF8F5
:10100000070069460448FFF7BFFD1CBD000402400D
:10101000000C0240001002400008024010B50446D7
:1010200014B101201F4908701E48007828B31E48DB
:10103000006840B11D48006828B11D48006810B123
:101040001C480068C8B90A2001F062F9002015495F
:1010500008701548006808B9032010BD13480068DF
:1010600008B90420F9E71248006808B90120F4E73C
:101070001048006898B90220EFE70B480068012883
:101080000DD10A480068012809D1094800680128E3
:1010900005D108480068012801D1024908700020E4
:1010A000DBE7000000000020248240421C82414215
:1010B00018024242340241421CB54FF48050009065
:1010C00001208DF8040000208DF8060003208DF823
:1010D000050001208DF8070069461048FFF754FD10
:1010E0004FF400610D48FFF7C5FD4FF4006000901C
:1010F00001208DF8040000208DF8060003208DF8F3
:10110000050001208DF8070069460548FFF73CFD02
:101110004FF400610248FFF7ADFD1CBD0000024026
:101120000010024000BFFEE77047000070B50021CC
:1011300000230F22C4781CB3174C246804F4E06425
:10114000C4F5E064C4F30721C1F10404E3B20A4129
:1011500044789C40E1B28478144021430C07210E6E
:101160000E4C05786155047804F01F050124AC404D
:1011700005786D11AD0005F1E025C5F8004109E0E5
:10118000047804F01F050124AC40054D0678761163
:1011900045F8264070BD00000CED00E000E400E0E2
:1011A00080E100E002490143024A116070470000FB
:1011B0000000FA050CED00E01CB53F200090012076
:1011C0008DF8040000208DF8060003208DF805003E
:1011D00001208DF8070069460148FFF7D5FC1CBDCA
:1011E0000010024010B5142140F2FB3000F076FBF5
:1011F000142140F2FB3000F0FFFB012001F020FE43
:1012000010BD704729B1064A12680243044B1A60A8
:1012100004E0034A12688243014B1A6070470000E1
:101220003038024029B1064A12680243044B1A6062
:1012300004E0034A12688243014B1A6070470000C1
:101240004038024029B1064A12680243044B1A6032
:1012500004E0034A12688243014B1A6070470000A1
:101260004438024029B1064A12680243044B1A600E
:1012700004E0034A12688243014B1A607047000081
:1012800024380240F0B50021002200240225002667
:101290000223324F3F6807F00C0121B1042905D029
:1012A000082937D105E02E4F076036E02D4F076043
:1012B00033E02A4F3F1F3F68C7F38056274F3F1F39
:1012C0003F6807F03F036EB1264FB7FBF3F7DFF837
:1012D0008CC0ACF1040CDCF800C0CCF3881C07FB1C
:1012E0000CF40CE01E4FB7FBF3F7DFF870C0ACF165
:1012F000040CDCF800C0CCF3881C07FB0CF4174F7F
:101300003F1F3F68C7F301477F1C7D00B4FBF5F723
:10131000076002E0124F076000BF00BF0F4F3F6839
:1013200007F0F0010909104F7A5C0768D740476061
:101330000A4F3F6807F4E051890A0B4F7A5C47680F
:10134000D7408760054F3F6807F46041490B064F5F
:101350007A5C4768D740C760F0BD0000083802409B
:101360000024F40000127A001E0600201CB50121A2
:101370000220FFF747FF1020009000208DF80400A6
:1013800001208DF8070002208DF80500694602480B
:10139000FFF7FAFB1CBD0000000402401CB5012150
:1013A0000220FFF72FFF1020009001208DF804008D
:1013B00000208DF8060002208DF8050069460248DD
:1013C000FFF7E2FB1CBD00000004024000B59BB02B
:1013D00001218805FFF716FF3F20199003208DF8A3
:1013E000680000208DF86B0019A9A148FFF7CCFB1D
:1013F000FF20199003208DF8680000208DF86B0005
:1014000019A99C48FFF7C0FB4FF28070199000208B
:101410008DF8680003208DF8690001208DF86B00BD
:1014200019A99548FFF7B0FB4FF60440199000202A
:101430008DF8680003208DF8690001208DF86B009D
:1014400019A98E48FFF7A0FB40F21F7019900020E9
:101450008DF8680003208DF8690001208DF86B007D
:1014600019A98748FFF790FB4FF40040199000201E
:101470008DF8680003208DF8690001208DF86B005D
:1014800019A97C48FFF780FB4FF480501990002089
:101490008DF8680003208DF8690001208DF86B003D
:1014A00019A97348FFF770FB01210802FFF7DAFE64
:1014B00000214FF48070FFF7D5FE7248FFF7CEF998
:1014C0000020009070480190704802900020039026
:1014D00010200490002005904FF48060069040009A
:1014E0000790800008904011099040020A90002067
:1014F0000B9001200C9000200D900E9069466148E1
:10150000FFF758FA01215F48FFF79CF90121080213
:10151000FFF798FE01210802FFF7A4FE00214FF417
:101520008070FFF79FFEFEF72DFF002015901790AB
:101530004FF4803016900020189015A8FEF7F4FEA6
:1015400000200F9001208DF840008DF84100002010
:101550001190139010208DF850000FA94A484C3874
:10156000FEF71CFF03230122002147484C38FEF7F9
:101570003FFF03230222012143484C38FEF738FF86
:1015800003231A46022140484C38FEF731FF03235B
:10159000042219463C484C38FEF72AFF0323052253
:1015A000042139484C38FEF723FF03230622052186
:1015B00035484C38FEF71CFF03230722062132482A
:1015C0004C38FEF715FF0323082207212E484C381C
:1015D000FEF70EFF0323092208212B484C38FEF7A3
:1015E00007FF03230A22092127484C38FEF700FF92
:1015F00003230B220A2124484C38FEF7F9FE03236B
:101600000C220B2120484C38FEF7F2FE03230D225A
:101610000C211D484C38FEF7EBFE03230E220D2152
:1016200019484C38FEF7E4FE03230F220E2116481A
:101630004C38FEF7DDFE032310220F2112484C38F0
:10164000FEF7D6FE012110484C38FEF790FE01212E
:101650000D484C38FEF780FE01210B484C38FEF750
:1016600057FE09484C38FEF71FFF1BB000BD0000B5
:101670000008024000000240001002400004024046
:10168000000C0240106402404C2001403006002053
:10169000704700000CB500200190009034480068AD
:1016A00040F480303249086000BF3148006800F4DF
:1016B000003000900198401C0190009818B90198E2
:1016C000B0F5A04FF1D12A48006800F4003010B105
:1016D0000120009001E0002000900098012846D1F0
:1016E00023484030006840F0805021494031086074
:1016F0002048006840F440401E4908601C480830FB
:1017000000681B49083108600846006840F4004042
:1017100008600846006840F4A05008601648091F99
:101720000860081F006840F08070091F086000BF53
:101730000F48006800F000700028F9D040F20570F2
:101740000E4908600A480830006820F00300084984
:10175000083108600846006840F00200086000BFD9
:1017600003480830006800F00C000828F8D10CBDD0
:10177000003802400070004008544007003C02401E
:10178000042808D14FF0E021096941F004014FF02D
:10179000E022116107E04FF0E021096921F0040126
:1017A0004FF0E022116170477047000010B51548F6
:1017B000006840F47000134908601348006840F066
:1017C00001001149086000200F49083108600E48E7
:1017D00000680E4908400C4908600D48091D086062
:1017E000081F006820F48020091F086000200649B7
:1017F0000C310860FFF74EFF4FF00060014980395F
:10180000086010BD88ED00E000380240FFFFF6FEE2
:101810001030002410B50121880700F0E2F90128FA
:1018200023D114480078012810D113480088401CA7
:101830001149088008460088C82807DB01200F49A5
:10184000086000200B4908700B4908800C4800888C
:10185000401C0B49088008460088B0F57A7F04D107
:1018600008480088401C074908800121880700F0CB
:10187000A9F910BD0006002002060020AC824142FA
:10188000F8050020FA0500207FB505460C46012129
:101890000846FFF7C7FC0295ADF804400020ADF8FC
:1018A0000600ADF80C0001A94FF0804000F008FBE5
:1018B00001221146900700F0A5F91C208DF80000C8
:1018C00001208DF8010003208DF8020001208DF821
:1018D00003006846FFF72AFC7FBD000030B58BB0DF
:1018E00004460D4601210220FFF79CFC022206213E
:1018F0003F48FFF791F9022207213D48FFF78CF995
:10190000022208213A48FFF787F9022209213848C4
:10191000FFF782F94FF47070099002208DF82800CB
:1019200003208DF8290000208DF82A0001208DF871
:101930002B0009A92E48FFF727F9A8B2ADF8180027
:101940000020ADF81A000794ADF8200006A9294838
:1019500000F0B6FA6020ADF804000120ADF80600F2
:101960000020ADF8100001A9224800F055F96020D0
:10197000ADF804000120ADF806000020ADF810001D
:1019800001A91C4800F090F96020ADF80400012086
:10199000ADF806000020ADF8100001A9154800F0D0
:1019A000E3F96020ADF804000120ADF80600002046
:1019B000ADF8100001A90F4800F030FA08210D48D9
:1019C00000F068F908210B4800F0C0F90821094827
:1019D00000F01AFA0821074800F05CFA01210548D6
:1019E00000F0E4F80121034800F0EFF80BB030BD3F
:1019F000000802400004004030B58BB004460D469C
:101A000001210420FFF70EFC02220C213F48FFF7C2
:101A100003F902220D213D48FFF7FEF802220E21B4
:101A20003A48FFF7F9F802220F213848FFF7F4F897
:101A30004FF47040099002208DF8280003208DF8A3
:101A4000290000208DF82A0001208DF82B0009A91B
:101A50002E48FFF799F8A8B2ADF818000020ADF8AD
:101A60001A000794ADF8200006A9294800F028FACA
:101A70006020ADF804000120ADF806000020ADF8AC
:101A8000100001A9224800F0C7F86020ADF804005A
:101A90000120ADF806000020ADF8100001A91C4897
:101AA00000F002F96020ADF804000120ADF8060056
:101AB0000020ADF8100001A9154800F055F960208C
:101AC000ADF804000120ADF806000020ADF81000CC
:101AD00001A90F4800F0A2F908210D4800F0DAF83A
:101AE00008210B4800F032F90821094800F08CF970
:101AF0000821074800F0CEF90121054800F056F80A
:101B00000121034800F061F80BB030BD000C024029
:101B10000008004010B501210C4800F062F80128CF
:101B20000ED10B480088401C0949088008460088EF
:101B3000B0F57A7F04D107480088401C0549088029
:101B40000121024800F03EF810BD0000000C0040EA
:101B5000FC050020FE0500207FB505460C4601214E
:101B60000820FFF75FFB0295ADF804400020ADF8B8
:101B70000600ADF80C0001A90B4800F0A1F9012204
:101B80001146094800F03EF832208DF8000001208F
:101B90008DF8010003208DF8020001208DF803006C
:101BA0006846FFF7C3FA7FBD000C004021B10288F0
:101BB00042F08002028004E002884FF67F731A40F0
:101BC00002807047CA430282704721B1028842F006
:101BD0000102028004E002884FF6FE731A40028080
:101BE000704730B50246002000230024158A05EA1C
:101BF0000103958905EA010413B10CB1012000E04D
:101C0000002030BD1AB183890B43838102E08389B0
:101C10008B4383817047000070B5002400220023AD
:101C2000058C4FF6FE7635400584028C8388048B44
:101C30004FF68F752C40B51E2C400D882C43751E19
:101C40002A408D892A434D882A43104DA84202D04C
:101C50000F4DA84213D14FF6F7752A40CD892A437C
:101C60004FF6FB752A408D882A434FF6FF652B40BF
:101C70004FF6FF552B400D8A2B434D8A2B43838013
:101C800004838D684563028470BD0000000001403C
:101C9000000401400A460021018B4FF6F7731940FA
:101CA000114301837047000070B500240022002317
:101CB000058C4FF6EF7635400584028C8388048BC3
:101CC00048F6FF752C404FF6FF452C400D884FF627
:101CD000FF7606EA05252C434FF6DF752A408D89ED
:101CE00006EA05152A434D8806EA05152A43154DCF
:101CF000A84202D0144DA8421DD14FF67F752A404C
:101D0000CD894FF6FF7606EA05152A434FF6BF75D3
:101D10002A408D8806EA05152A434FF6FF352B40E9
:101D20004FF2FF752B400D8A06EA85052B434D8A3D
:101D300006EA85052B43838004838D6885630284CE
:101D400070BD000000000140000401400A4600216F
:101D5000018B4FF2FF7319404FF6FF7303EA022322
:101D6000194301837047000070B50024002200234E
:101D7000058C4FF6FF6635400584028C8388848B82
:101D80004FF68F752C404FF6FC752C400D882C4378
:101D90004FF6FF552A408D894FF6FF7606EA052556
:101DA0002A434D8806EA05252A43154DA84202D04C
:101DB000144DA8421DD14FF2FF752A40CD894FF630
:101DC000FF7606EA05252A434FF6FF352A408D881F
:101DD00006EA05252A434EF6FF752B404DF6FF75A2
:101DE0002B400D8A06EA05152B434D8A06EA051598
:101DF0002B43838084838D68C563028470BD00009B
:101E000000000140000401400A460021818B4FF68A
:101E1000F7731940114381837047000070B50022A9
:101E200000230024058C4EF6FF7635400584038C94
:101E30008488828B48F6FF752A404FF6FF452A407A
:101E40000D884FF6FF7606EA05252A434DF6FF7505
:101E50002B408D8906EA05352B434D8806EA05356A
:101E60002B430A4DA84202D0094DA84208D14BF697
:101E7000FF752C400D8A4FF6FF7606EA85152C4338
:101E8000848082838D680564038470BD00000140F6
:101E9000000401400A460021818B4FF2FF73194074
:101EA0004FF6FF7303EA02231943818370474163AE
:101EB000704781637047C1637047016470470000D9
:101EC00000220288184B98420ED0184B98420BD033
:101ED000B0F1804F08D0164B984205D0154B984270
:101EE00002D0154B984204D14FF68F731A404B889D
:101EF0001A43124B984207D0114B984204D04FF628
:101F0000FF431A400B891A4302804B68C3620B8857
:101F10000385054B984202D0044B984201D18B7A3D
:101F200003860123838270470000014000040140C2
:101F30000004004000080040000C00400010004079
:101F400000140040704721B1828942F4005282811E
:101F500004E082894DF6FF731A4082817047F0B524
:101F60000346002400260025002040F66A17B942E7
:101F700000D100BF1846C1F3421401F01F0601272B
:101F800007FA06F5012C01D10C3004E0022C01D136
:101F9000103000E014301AB107682F43076002E0E8
:101FA0000768AF430760F0BD2DE9FF4705460E46C1
:101FB0000024A14600BFA046B08900B100BF2C8A12
:101FC00024F44054F08804432C82AC8941F20C6024
:101FD0008443B08831890843718908430443AC8144
:101FE000AC8A24F44074B0890443AC826846FFF79D
:101FF00049F92048854202D01F48854202D1DDF8C8
:102000000C9001E0DDF80890A88900F4004040B190
:1020100009EBC90000EB091031684900B0FBF1F78A
:1020200007E009EBC90000EB091031688900B0FB3B
:10203000F1F76420B7FBF0F004012009642101FBF3
:102040001078A88900F4004040B1322000EBC800AD
:10205000B0FBF1F000F00700044308E0322000EB91
:1020600008106421B0FBF1F000F00F0004432C8154
:10207000BDE8FF87001001400014014000BFFEE7EB
:1020800010B54FF4A060FFF78DF801210846FFF767
:10209000B9F801210220FFF7B5F801210420FFF76C
:1020A000B1F801210820FFF7ADF801211020FFF75A
:1020B000A9F8A82000F00EF91149012001F082FAD8
:1020C000FEF7A2FBFEF762FFFEF7F4FEFFF78AF8C9
:1020D000532140F2E730FFF7D7FB01F0D9F8532145
:1020E00040F2E730FFF738FD01F0E2F8FEF7FEFDC1
:1020F000642000F00DF9FEF7DFFFFFF767F910BD70
:1021000040420F0000BF704770B504460025102CF8
:1021100029D2DFE804F0080A0C0E10121416181A5F
:102120001C1E202224260A251DE00B251BE00C2561
:1021300019E00D2517E0002515E0012513E0022523
:1021400011E003250FE004250DE005250BE0062531
:1021500009E0072507E00E2505E00F2503E0082527
:1021600001E0092500BF00BF284600F0B5FB02488A
:1021700030F8150070BD00005006002070B5002535
:102180004FF4966601240AE0E0B2FFF7BDFFB042CB
:1021900004DDE0B2FFF7B8FF06462546641C0B2CB1
:1021A000F2DDAAB20121042000F0E8FA284670BD51
:1021B00010B500F0ABFF0AE06FF063010846FEF7D0
:1021C0005BFD00F061FFC82800DC00E000E0F3E701
:1021D00000BF10BD10B500F099FF0AE06FF0950147
:1021E0009620FEF749FD00F04FFFC82800DC00E014
:1021F00000E0F3E700BF10BD10B500F001F810BD1E
:10220000012003490870002002490860704700005F
:1022100000060020AC82414231B50024012269460B
:10222000352001F0F9FA322000F072F811E000F0E8
:102230003BF89DF80010884203D0322000F068F887
:1022400001E0012038BD601CC4B2502C01DD00202B
:10225000F8E7ECE770B504211248FEF709FD01210B
:102260001048FEF707FD002414E004F1B00001F06F
:1022700045F9002001F042F9102001F03FF9002556
:1022800004E0002001F06CF9681CC5B2802DF8DB79
:10229000601CC4B2082CE8DB04210248FEF7EAFC0B
:1022A00070BD00000010024008B5012269463520CB
:1022B00000F014FF9DF8000008BD002107E0002297
:1022C00000E0521C41F27C539A42FADB491C8142E5
:1022D000F5DB704710B504466FF00400FFF750FAC5
:1022E000E11704EB5171C1F3C701074A11701046A1
:1022F000007800EB4001C1EBC0104FF6FF7101EA1E
:10230000C0000249088010BD1A0600201C060020EB
:1023100070B504464FF4077094FBF0F0C6B24FF46A
:10232000077094FBF0F100FB114085B205E04FF41B
:10233000077000F02FF8701EC6B2002EF7D115B14D
:10234000284600F027F870BD0146114A12784A432A
:102350004FF0E0235A6100229A611A46126942F056
:1023600001021A6100BF4FF0E022106900F0010283
:102370001AB100F48032002AF5D04FF0E022126941
:1023800022F001024FF0E0231A6100229A617047A7
:102390001A0600200146114A12884A434FF0E023F2
:1023A0005A6100229A611A46126942F001021A61CA
:1023B00000BF4FF0E022106900F001021AB100F4F2
:1023C0008032002AF5D04FF0E022126922F001029B
:1023D0004FF0E0231A6100229A6170471C0600202A
:1023E000014600201A2915D2DFE801F00D151D263F
:1023F0002FE938414A535C656E778089929AA3AC85
:10240000B4BCC5CED7E06F4A1268012A01D10120C1
:1024100000E00020D3E06C4A1268012A01D10120BB
:1024200000E00020CBE0684A121D1268012A01D1A9
:10243000012000E00020C2E0634A08321268012A4D
:1024400001D1012000E00020B9E05F4A0C3212689F
:10245000012A01D1012000E00020B0E05A4A1432E4
:102460001268012A01D1012000E00020A7E0564AAD
:1024700018321268012A01D1012000E000209EE0FC
:10248000514A1C321268012A01D1012000E00020CB
:1024900095E04D4A20321268012A01D1012000E066
:1024A00000208CE0474A20321268012A01D1012025
:1024B00000E0002083E0434A24321268012A01D15F
:1024C000012000E000207AE03E4A28321268012A0A
:1024D00001D1012000E0002071E03A4A2C3212685C
:1024E000012A01D1012000E0002068E0354A3032A5
:1024F0001268012A01D1012000E000205FE0314A8A
:1025000034321268012A01D1012000E0002056E097
:102510002E4A1268012A01D1012000E000204EE07D
:102520002A4A121D1268012A01D1012000E0002070
:1025300045E0264A08321268012A01D1012000E054
:1025400000203CE0224A1268012A01D1012000E06B
:10255000002034E01F4A1268012A01D1012000E066
:1025600000202CE0194A203A1268012A01D10120EA
:1025700000E0002023E0154A1C3A1268012A01D12C
:10258000012000E000201AE0104A183A1268012ADF
:1025900001D1012000E0002011E00C4A143A126839
:1025A000012A01D1012000E0002008E0074A103A8A
:1025B0001268012A01D1012000E0002000BF00BF05
:1025C00070470000088240421C0242422082414281
:1025D0003C024042300241422DE9F0478EB0824633
:1025E0000E4615460024A8E0285DB02837DB285D9C
:1025F000F72834DC601C285CA12830DB285DB0386B
:102600005E2110FB01F050490860601C285C00F25C
:10261000AD20096808444C4908600846006840013C
:10262000086008460068C0F3074708460088C0F302
:102630000728084690F80090202006AB4A464146FD
:102640000090384600F0CAFB06AA3146504600F01A
:10265000CDF8A01CC4B206F11000C6B26DE0285D32
:10266000A12836DB285DA32833DC601C285CA12868
:102670002FDB285DA1385E2110FB01F03249086094
:10268000601C285CA138096808442F490860084686
:1026900000684001086008460068C0F30747084624
:1026A0000088C0F30728084690F80090202006AB69
:1026B0004A4641460090384600F090FB06AA314653
:1026C000504600F093F8A01CC4B206F11000C6B248
:1026D00033E0285D20282EDB285D7E282BDC285D5A
:1026E000203819490860084600680001086008465B
:1026F0000068164908441449086008460068C0F399
:10270000074708460088C0F30728084690F800905D
:10271000102002AB4A4641460090384600F05EFB6E
:1027200002AA3146504600F08FF8601CC4B206F190
:102730000800C6B201E0601CC4B2285D00283FF763
:1027400053AF0EB0BDE8F087F405002080CF030042
:10275000F8B505460E4614460A2094FBF0F100FB3E
:1027600011403030C0B28DF8000000208DF801001B
:102770006A4631462846FFF72FFFF8BD7CB505466F
:102780000E4614464FF47A7094FBF0F03030C0B22D
:102790008DF800004FF47A7094FBF0F100FB1140CB
:1027A000642190FBF1F03030C0B28DF8010064205C
:1027B00094FBF0F100FB11400A2190FBF1F0303066
:1027C000C0B28DF802000A2094FBF0F100FB11402A
:1027D0003030C0B28DF8030000208DF804006A4646
:1027E00031462846FFF7F8FE7CBD00002DE9F04198
:1027F00004460E46154604211248FEF739FA012117
:102800001048FEF737FA4FF0020812E0E1B2F0B2DA
:1028100000F028FB002705E0287800F0A1FE6D1CE1
:10282000781C87B2102FF7DB641CA8F101001FFA97
:1028300080F8B8F1000FE9DC04210248FEF71AFA2B
:10284000BDE8F081001002402DE9F04104460E463B
:10285000154604211048FEF70BFA4FF0020812E06B
:10286000E1B2304600F0FEFA002705E0287800F0DB
:1028700077FE6D1C781C87B2082FF7DB641CA8F16B
:1028800001001FFA80F8B8F1000FE9DC04210248CA
:10289000FEF7F0F9BDE8F0810010024010B500F03D
:1028A00035FC0AE064214842FEF7E6F900F0ECFB53
:1028B000B0F5C87F00DC00E000E0F3E700BF10BD2A
:1028C0000120014908607047AC02424200200149E2
:1028D00008607047AC02424270B52DED088B04468B
:1028E000194830F81400194921F81400084630F846
:1028F0001460174830F81450304601F088F841EC65
:102900001B0B9FED140B53EC102B01F093F841ECD3
:10291000190B284601F07BF841EC1B0B9FED0F0BC8
:1029200053EC102B01F086F841EC1A0B53EC192BE9
:1029300000F098FF41EC180B01F03CF8024921F837
:102940001400BDEC088B70BD5006002070060020FE
:1029500030060020989999999999C93F9A9999991F
:102960009999E93F10B5022000F0B4FCD0B1FFF70F
:1029700043FC00F0CBFB13E00120FFF731FD012801
:1029800008D00220FFF72CFD012803D000F07CFBCB
:10299000C82800DD05E04FF496714842FEF76CF957
:1029A000EAE785E1FFF7EAFB0C2874D2DFE800F0E4
:1029B0007306197CDEF7EEEDECEBEAE900F0A6FB1E
:1029C0000CE000F0BDF918B900F05EFB502800DD06
:1029D00005E04FF496714842FEF74EF9F1E700BF6B
:1029E00065E100210846FEF747F94FF4FA70FFF75A
:1029F0008FFC00F0B9FE00F089FB52E0022000F0ED
:102A000069FC98B300F082FBFFF7F6FB13E00120AE
:102A1000FFF7E6FC012808D00220FFF7E1FC0128BF
:102A200003D000F031FBC82800DD05E04FF49671BB
:102A30004842FEF721F9EAE700BF00F067FB14E027
:102A40000120FFF7CDFC012809D00220FFF7C8FCC8
:102A5000012804D000F018FBB0F5FA7F00DD06E095
:102A60004FF4AF710846FEF707F9E9E703E000BF4E
:102A700000F07AFE16E00120FFF7B2FC012809D031
:102A80000220FFF7ADFC012804D000F0FDFAB0F5FC
:102A9000967F01DD06E004E14FF4AF710846FEF7D2
:102AA000EBF8ABE700BF02E100210846FEF7E4F8CF
:102AB0004FF4FA70FFF72CFC00F056FE00F026FBF6
:102AC00051E0022000F006FC98B300F01FFBFFF776
:102AD00093FB13E00120FFF783FC012808D00220BC
:102AE000FFF77EFC012803D000F0CEFAC82800DDF5
:102AF00005E04FF496714842FEF7BEF8EAE700BFE2
:102B000000F004FB14E00120FFF76AFC012809D063
:102B10000220FFF765FC012804D000F0B5FAB0F5FB
:102B2000FA7F00DD06E04FF4AF710846FEF7A4F827
:102B3000E9E703E000BF00F017FE15E00120FFF712
:102B40004FFC012809D00220FFF74AFC012804D0DD
:102B500000F09AFAB0F5967F00DD05E04FF4AF7112
:102B60000846FEF789F8ACE700BFA0E000F0CEFA17
:102B700012E000F0E5F818B900F086FA502807DDF9
:102B80000BE07BE067E053E03FE02CE019E006E07B
:102B900048494842FEF770F8EBE700BF87E000F0D5
:102BA000B5FA0BE000F0CCF818B900F06DFA5A282D
:102BB00000DD04E03F494842FEF75EF8F2E700BF5F
:102BC00075E000F0A3FA0BE000F0BAF818B900F0D5
:102BD0005BFA642800DD04E036494842FEF74CF811
:102BE000F2E700BF63E000F091FA0BE000F0A8F814
:102BF00018B900F049FA962800DD04E02D49484252
:102C0000FEF73AF8F2E700BF51E000F07FFA0CE07F
:102C100000F096F820B900F037FAB0F5487F00DDF3
:102C200004E024494842FEF727F8F1E700BF3EE000
:102C300000F06CFA0CE000F083F818B900F024FA08
:102C4000962800DD05E04FF496714842FEF714F82F
:102C5000F1E700BF2BE000F059FA0CE000F070F84B
:102C600018B900F011FA642800DD05E04FF4967100
:102C70004842FEF701F8F1E700BF18E000F046FA1D
:102C80000CE000F05DF818B900F0FEF9502800DD06
:102C900005E04FF496714842FDF7EEFFF1E700BF03
:102CA00005E04FF496710846FDF7E6FF00BF00BF50
:102CB00010BD0000D4FEFFFF10B500F027FA09E0B8
:102CC0006FF0C7010846FDF7D7FF00F0DDF9C8280F
:102CD00000DD00E0F4E700BFFFF76AFA10BD000076
:102CE00070B5002420211548FDF7C4FF00BFFDF793
:102CF00035FF00251CE002211048FDF7BBFF00BF97
:102D000020210E48FDF7B4FF00BF6006040E02212B
:102D10000A48FDF7A4FF18B1601CC4B200BF01E06F
:102D2000E4B200BF20210548FDF7A4FF681CC5B22E
:102D3000082DE0DBFDF7FCFE204670BD00100240D0
:102D400010B50120FFF74CFB012804D00220FFF74B
:102D500047FB012833D10120FFF742FB01280DD1A9
:102D60000220FFF73DFB48B918A201210220FFF71E
:102D700033FCFFF7A1FFFFF72DFA16E00120FFF764
:102D80002FFB70B90220FFF72BFB012809D111A2FC
:102D900001210220FFF720FCFFF78EFFFFF71AFA50
:102DA00003E0FFF789FFFFF779FD4FF496710846BE
:102DB000FDF762FF6420FFF7ABFA012010BD4FF46E
:102DC00096710846FDF758FF0020F7E72D2D2DD707
:102DD000F3B2E000D3D2B2E02D2D2D002DE9F04763
:102DE00080460D4616461F46DDF820900121134807
:102DF000FDF73EFF04211148FDF73CFF20210F485D
:102E0000FDF736FF032000F0B9F9404600F0B6F9AF
:102E1000284600F0B3F9304600F0B0F9002404E091
:102E2000FFF75EFF3855601CC4B24C45F8DB01214A
:102E30000248FDF71FFFBDE8F087000000100240C8
:102E400010B50446012C04D101210548FEF7BDFE52
:102E500004E01CB900210248FEF7B7FE10BD0000D7
:102E60000008004070B504460D4605F1B00000F0C2
:102E700045FB102141EA141000F040FB04F00F0064
:102E800000F03CFB70BD0000012001490860704764
:102E9000B00240420020014908607047B002404241
:102EA000FFF7EEF800F0D2F90720FFF7B5F901209F
:102EB00000F0C2F962E000F057FC0020FEF7AEF827
:102EC0002F490870084600782E4908702EA201216B
:102ED0000020FFF781FB2FA201210220FFF77CFBDE
:102EE0002FA201210420FFF777FB30A20121062049
:102EF000FFF772FB0020FEF791F8214908700846A1
:102F0000007818B1084600781E4908701D480078FE
:102F1000012802D100F0FAF930E01A4800780228BE
:102F200010D1FFF797F900F0DDFB0AE000F01CFC80
:102F3000FFF706FF00F0F4F808B1FDF769FDFFF7B1
:102F400011FDF3E70F48007803280FD1FFF782F94E
:102F50000BE0FFF7B5FC4FF47A70FFF7D9F9FFF7F4
:102F6000B5FC4FF47A70FFF7D3F9F2E70548007823
:102F7000042803D1FFF76EF900F0A0FA9BE70000E8
:102F80000C0600200D06002031A1A2BCECB2E2C468
:102F9000A3CABD0032A1A2D6F7B3CCD0F200000084
:102FA00033A1A2B2E2CAD4B3CCD0F20034A1A2B70A
:102FB000B5BBD80070B505460C46B4F57A7F01DD87
:102FC0004FF47A7414F57A7F00DA2C4C9DB9002CFA
:102FD00008DB21462A48FEF76AFF00212848FEF751
:102FE00068FF49E061422648FEF763FF002124485C
:102FF000FEF75DFF40E0012D13D1002C08DB2146D8
:103000001F48FEF758FF00211D48FEF756FF33E02A
:1030100061421B48FEF751FF00211948FEF74BFFA4
:103020002AE0022D13D1002C08DB21461548FEF7BB
:103030003EFF00211348FEF73CFF1DE061421148AE
:10304000FEF737FF00210F48FEF731FF14E0032D94
:1030500012D1002C08DB21460A48FEF72CFF002184
:103060000848FEF72AFF07E061420648FEF725FF01
:1030700000210448FEF71FFF70BD000018FCFFFF91
:10308000000800400004004001480088704700002C
:10309000F805002070B50446FDF7B0FE6420FDF78A
:1030A00085FEFDF7E1FEE0B2FDF780FEFDF7DCFEF8
:1030B000200AFDF77BFEFDF7D7FEFDF7BBFEFDF70F
:1030C0009DFE6520FDF772FEFDF7CEFE0020FDF7A8
:1030D00041FE0546FDF7AEFE284670BD2DE9F041E4
:1030E00005460C4616460027B84609E028466A1CE5
:1030F00095B2FFF7CFFF04F8010B7F1C08F1010820
:10310000B045F3DB3846BDE8F081000000200249FD
:103110000880024908807047F8050020FA05002061
:1031200010B5FFF797F801241FE0E0B2FEF7ECFFBF
:10313000B0F57A7F18DD611CC8B2FEF7E5FFB0F587
:103140007A7F11DD211DC8B2FEF7DEFFB0F57A7F70
:103150000ADD08A201210020FFF73EFA00210846FF
:10316000FDF78AFD012010BD641C072CDDDD002069
:10317000F9E70000B5F4CCA80000000070B50446E3
:1031800000251BE004F0800028B110210D48FDF758
:1031900071FD00BF04E010210A48FDF769FD00BF82
:1031A0006006040E20210748FDF762FD00BF2021C4
:1031B0000448FDF75FFD00BF681CC5B2082DE1DBC8
:1031C00070BD00000010024070B505460C46012D90
:1031D00023D0022D17D0032D0BD0042D27D104EBC3
:1031E000440000EB0410C0F57B611248FEF75FFE5F
:1031F0001DE004EB440000EB0410C0F57B610D48BA
:10320000FEF757FE13E004EB440000EB0410C0F59A
:103210007B610848FEF74FFE09E004EB440000EB39
:103220000410C0F57B610348FEF747FE00BF00BFF6
:1032300070BD00000008004038B50446009401222B
:103240006946302000F0E8FA38BD000010B50CA245
:1032500001210220FFF7C0F94FF4FA60FFF758F898
:10326000FEF7CAFFFFF716FE4FF49670FFF750F80F
:10327000FEF7C2FFFFF708FEFEF7ECFF10BD0000EF
:1032800020205468652057617272696F72000000D7
:1032900010B50020044908800449088001218807EE
:1032A000FEF793FC10BD0000F8050020FA05002091
:1032B00010B5002004490880044908800121044811
:1032C000FEF783FC10BD0000FC050020FE05002079
:1032D000000C004002460B480078072801D000206F
:1032E000704709484378022106E00748405C904255
:1032F00001D10120F4E7491C981C8842F5DC00202C
:10330000EEE70000180600209006002070B50025AA
:10331000FEF7A0FF9BE04FA201210020FFF75CF920
:1033200050A201210220FFF757F951A201210420E8
:10333000FFF752F951A201210620FFF74DF90020B5
:10334000FDF76CFE0546012D04D1FDF7B3F8FEF73D
:1033500081FF7CE0022D21D11FE0FEF77BFF0024DE
:1033600019E048A201210020FFF736F948A2012107
:103370000220FFF731F9A2B21E210420FFF7FEF967
:1033800021460120FFF720FF21460220FFF71CFF06
:103390006420FEF7BDFFB42CE3DDDEE7032D51D141
:1033A0004FE0FEF757FF002448E03CA20121002037
:1033B000FFF712F93CA201210220FFF70DF9002CC2
:1033C0000ADB3CA214210420FFF706F9A2B21E2159
:1033D0000420FFF7D3F90AE037A214210420FFF7F5
:1033E000FBF8604282B21E210420FFF7C7F9214694
:1033F0002046FDF741FC0020FDF710FE0546012D9B
:1034000007D1B4F57A7F04DA32346420FEF780FF06
:1034100013E0022D07D114F57A7F04DD323C6420DD
:10342000FEF776FF09E0032D04D164426420FEF725
:103430006FFF02E0042D00D107E00025B4F57A7F8C
:10344000B3DDAEE7042D02D100BF002500E062E746
:1034500000BF70BD31A1A2B4ABB8D0C6F7BCECB20E
:10346000E200000032A1A2B6E6BBFABCECB2E20078
:1034700033A1A2B5E7BBFABCECB2E20034A1A2B71B
:10348000B5BBD800B4A5C3FED2D4D4F6BCD30000DB
:10349000B6E6BBFA50574D3A00000000B0B4BCFC91
:1034A000D2D4B8C4B1E40000B5E7BBFAD7AACBD9EF
:1034B0003A000000200000002D00000010B500249C
:1034C0000AA200210220FFF787F80CE00020FDF798
:1034D000A5FD0446022C06D14FF47A70FEF718FFC2
:1034E000FEF7B8FE00E0F1E700BF10BD546F756352
:1034F000682053656E736F720000000070B504465B
:1035000008211648FDF7B4FB04211448FDF7B0FB71
:10351000002517E020211148FDF7AAFB04F08000E8
:1035200020B110210D48FDF7A5FB03E010210B4849
:10353000FDF79EFB20210948FDF79CFB00BF6400BE
:10354000681CC5B2082DE5DB08210448FDF792FB95
:1035500004210248FDF78EFB70BD00000010024000
:1035600070B5044608211648FDF784FB0421144871
:10357000FDF77EFB002517E020211148FDF778FBC1
:1035800004F0800020B110210D48FDF773FB03E02B
:1035900010210B48FDF76CFB20210948FDF76AFB61
:1035A00000BF6400681CC5B2082DE5DB0821044893
:1035B000FDF760FB04210248FDF75CFB70BD0000D5
:1035C0000010024030B587B005460C460121C80402
:1035D000FDF728FE01214804FDF724FE012188049F
:1035E000FDF720FE072206213A48FDF715FB0722CA
:1035F00011463848FDF710FBC020059002208DF8D9
:1036000018008DF8190000208DF81A0001208DF89F
:103610001B0005A92F48FDF7B7FA012D15D101941C
:103620000020ADF80800ADF80A00ADF80C00ADF8C8
:1036300010000C20ADF80E0001A92748FEF7B4FCDD
:1036400001212548FEF77FFC2EE0022D15D10194C3
:103650000020ADF80800ADF80A00ADF80C00ADF898
:1036600010000C20ADF80E0001A91C48FEF79CFCD0
:1036700001211B48FEF767FC16E0032D14D10194CD
:103680000020ADF80800ADF80A00ADF80C00ADF868
:1036900010000C20ADF80E0001A90F48FEF784FCC5
:1036A00001210E48FEF74FFC012240F225510A4845
:1036B000FEF755FC27208DF8000003208DF801004F
:1036C00001208DF802008DF803006846FDF72EFDFD
:1036D00007B030BD000402400048004000440040F4
:1036E000004C004010B506E0FEF7B4FD18A205211D
:1036F0000220FEF771FF0A20FEF706FDB0F5FA6F13
:10370000F2DBFEF7A7FD15A205210220FEF764FFFC
:1037100014490846FDF7B0FA4FF4E160FEF7F8FDF2
:1037200000210846FDF7A8FA6420FEF7F1FD0D49D7
:1037300096314842FDF7A0FA4FF47A70FEF7E8FDA3
:1037400032210846FDF798FA6420FEF7E1FD10BD2E
:103750005374616E6420427900000000C9CFCCA888
:10376000000000003EFEFFFF10B501222849352071
:10377000FFF7B4FC264800780A2844D2DFE800F0BE
:1037800043050C131A21282F363C302221494FF4CF
:103790008060FFF7A3FC37E030221E494FF4006041
:1037A000FFF79CFC30E080221A494FF44060FFF79D
:1037B00095FC29E0402217494FF46060FFF78EFC2A
:1037C00022E0302213494FF48050FFF787FC1BE0C2
:1037D000302210494FF4A050FFF780FC14E0302253
:1037E0000C494FF4F050FFF779FC0DE03022094905
:1037F000D001FFF773FC07E0302206494FF4E05098
:10380000FFF76CFC00BF00BF00BF012010BD00002F
:1038100018060020900600202DE9F04104460D46D0
:103820001646FDF7EBFA6420FDF7C0FAFDF71CFB26
:10383000E0B2FDF7BBFAFDF717FB200AFDF7B6FA79
:10384000002706E0FDF710FB15F8010BFDF7AEFAB7
:103850007F1CB742F6DBFDF707FBFDF7EBFA3046BE
:10386000BDE8F08110B591EA030F48BF83F0004333
:1038700000F1E681841A71EB030C05D2121943EBB7
:103880000C03001B61EB0C01DFF824E14FEA11543B
:10389000A4EB135C1EEA430F18BF9EEA445F73D08B
:1038A00023EA0E03DCF1200E21EA045143F48013D5
:1038B00032D322FA0CFE10EB0E0023FA0CFE41EB81
:1038C0000E01CCF1200E03FA0EFE10EB0E0051F1AA
:1038D0000001B1F5801FCCF1200E32D201EB045172
:1038E00012FA0EF2BDE8104058BF7047401C38BFB6
:1038F0005FEA420218BF7047002814BF20F00100A1
:1039000041F100014FEA410313F5001F38BF704732
:10391000A1F1C04100F086B9012A43EB0302ACF1EA
:10392000200CDCF11F0E32BF4FF0000E23FA0CF317
:1039300010EB030041EB0451B4EB115FD0D0A1EBCD
:10394000045101F5801149085FEA300001EB045190
:103950000ED350F1000038BF12FA0EFE08D1BDE8B8
:103960001040C9E7401C38BF5FEA4202CAD1C3E732
:10397000BDE810404FEA410313F5001F38BF704700
:10398000A1F1C04100F04EB99EEA445F08D011EAAF
:103990005E0FBDE8104004BF01F0004100207047F9
:1039A000BDE8104070B500F0EFF800BF64FBBE3E0C
:1039B0000000E0FF4FEA1153A3F58063D3F11E032B
:1039C000A8BFD3F1200C08DB4FF0004242EAC1222D
:1039D00052EA505232FA03F0704709420BD4102BCE
:1039E000C4BF0020704703F5787CBCF1FF3F05D0D1
:1039F0004FF0FF3070474FF00000704770B500F097
:103A0000C3F800BF4992248000207047F0E7B0FA65
:103A100080F310FA03F10AD0C3F11D0303F58063AC
:103A20004FEA41504FEA035202EBD12170474FF069
:103A300000007047DFF848C170B51CEA111E1EBFB8
:103A40001CEA13159EEA0C0F95EA0C0F00F06F802C
:103A500081EA030423EA4C134EEAD47E21EA4C1196
:103A600041F4801143F48013AE44A1FB024CA0FB4F
:103A70000365AEF17F7E361955EB0C05A1FB034CB7
:103A80004CF10003A0FB021C16EB0C06654153F140
:103A90000003094218BF46F0010613F4007F0BD162
:103AA0004FEA03314FEA0530340341EA155140EA49
:103AB00016506FF003020AE04FEAC3214FEAC52017
:103AC000F40241EA555140EA56506FF0020202EB0F
:103AD0002E4201EB025585EACE710AD05FEA440C12
:103AE00018BF24F0004450F1000041F1000120EA29
:103AF000D47040F2FE7C624500D270BDA84214BF73
:103B00004FF080444FF04044002E08BF0024BEF127
:103B1000806FA8BFA1F1C041BDE8704080F28280F3
:103B20004FF0000001F1C04101F0004170479EEAF2
:103B30000C0F0CEA131518BF95EA0C0F06D04FF0C6
:103B4000000081EA030E0EF0004170BD00F01CF889
:103B50008900013E00F007B800F009B84FEA430CB5
:103B60005FEA5C5C08D081EA030100F05BB84FEAD1
:103B7000410C5FEA5C5CF6D14FF0000001497047F0
:103B80000000FF070000F87F0EF1020E2EF0030E7A
:103B90005EF8046B364205D4012A43EB030515F5A4
:103BA000001F12D8012841EB010C1CF5001F0CD896
:103BB0000ED14FEAD17C15F5001F0CEB4C0C0CF12B
:103BC000020C08BF4CEBD37C04E04FF0080C01E082
:103BD0004FEAD37C0CEB4C0526FA05F606F00706F7
:103BE000B6F1040C06D20EEB860CBDE870404CF02A
:103BF000010C6047DFE80CF0090B02024FF00041B6
:103C00004FF00000A1F5002170BD194610460128B3
:103C100051EB010418BFD4F5001484BF002001F05B
:103C2000004170BD0808A0F500114FEA310170474E
:103C300010B591EA030F48BF83F000433FF51AAE79
:103C4000841A71EB030C07D212198CF0004C43EB71
:103C50000C03001B61EB0C01DFF8A4E14FEA1154E7
:103C6000A4EB135C1EEA430F18BF9EEA445F00F00A
:103C7000B08023EA6E03524221EA0451C3EB6E0383
:103C800038BF5B1EDCF1200E25D322FA0CFE10EBB0
:103C90000E0043FA0CFE41EB0E01CCF1200E03FAAC
:103CA0000EFE10EB0E0051F10001CCF1200E29D4D4
:103CB00012FA0EF201EB0451BDE8104058BF7047F4
:103CC000401C1CBFB2F1004F704700280CBF491CBC
:103CD00020F00100704712EB020E43EB030218BF05
:103CE0004FF0010E4EEA4202ACF1200CDCF11E0E48
:103CF00054D943FA0CFE10EB0E0051F1FF31CCF118
:103D00001E0ED5D50EF1010E12FA0EFE404141EB0A
:103D1000010101EB445C5FEA5C5C10D910EBDE70E2
:103D200001EB045138BFBEF1004FBDE8104018BF91
:103D3000704700280CBF491C20F00100704730D2AA
:103D40004FEAD42C11F5001124F400641BD0B1FA11
:103D500081F20B3AA41AA41ED2F12003914030FA4A
:103D600003F31943904001EBCC71002C01EB04519B
:103D7000BDE81040A8BF704701F1C0414FF00000FE
:103D800001F000417047B0FA80F310FA03F100D15E
:103D900010BDE41A173C4805C90AE4E701EB0451D9
:103DA00010BD491001EB0451BDE810404FEA30004E
:103DB00002E04FF0000170474A0008BF0042F8D00F
:103DC000B2F5001F28BF704701F000414FF000001E
:103DD00070479EEA445F07D011EA5E0FBDE81040CD
:103DE00004BF002100207047BDE8104070B5FFF708
:103DF000CBFE00BF40DFF63E83F000411046704727
:103E00000000E0FF4FF04070E1EE100A7047000044
:103E1000303E00080000002030060000C401000809
:103E2000B0410008300600204007000020020008D2
:103E300002160172F84333301C100C0603912C401B
:103E4000C07803112C043F0403212D7088FC08293D
:103E5000261820FF211E14F008F033E0184D211C15
:103E6000031E11338870000C101E212324192721F2
:103E70001010160E45E018040225071820403D02D8
:103E80000418E0692C20180707174080F080404094
:103E90003F0202010F01022842F01D0101011F042F
:103EA000912B80B066B1191D2901913A30CE492C71
:103EB000146018043C6018061D1EE01008081072FB
:103EC0001F0F102020100FF05310F83620203F2035
:103ED000203C700808C21E3028242221441E3008CD
:103EE000888848082E1820202011CC3BC02032277B
:103EF000070424243F241AF8202308084B19212002
:103F000036E0108888184B0F11101E380808C83882
:103F10002021523F1A702E29608F1C222121221C41
:103F200090111D31222211901961CAC0C26A80C647
:103F300059081C40201050170102040810204A4064
:103F400001114A04012119152A403219251B0402C6
:103F5000F21B7048D13AF0501A360F1EC030C828F4
:103F6000E87028080718272423140B6F2A387E28A6
:103F70000D203C23020227382008F888889F4B2018
:103F80003FF01BC0303F1B083830191019781B0850
:103F9000F80F194039201B100F103E8888E80810D0
:103FA00010AC23201810112A035E29402238294022
:103FB0002C221E024019A41809F808203F210101F3
:103FC00021252A0852298129424149112EC0808089
:103FD000807F0E2FF888C0281808501C0126382F23
:103FE0002940292F29801B20301012F81AF81413A9
:103FF000203F190229204B30C0601A2074123F4B19
:10400000E010B06B0F10B029D01AF03019802201E7
:1040100079203F18242438504FC04C888870C01431
:104020000C30204B7088C11738202121221C3A18EF
:104030009F4A188239A049D0112A1F90121F2408C4
:1040400078881BC838151C07380E60191A1AF82012
:104050001114033C0714073C0348140818688080B7
:1040600068180820302C03032C30200838C82F593A
:1040700050298F29102F203826212020681145FE35
:10408000020202257F4040401A0CE0611C01063804
:104090000B191D42FE191D527F1A04120211045AF7
:1040A00080011930D91D391621180819242222221D
:1040B0003F20AB390F115F3F112020110E21311A23
:1040C0000E104B2011104B88F8102A10B359401ACB
:1040D0001F3F2B22130F16F0888888181A20D0292A
:1040E000D1497A21176B94949493603960190F4CDD
:1040F000203F21F354809898793059121AC027191B
:10410000D1193039311F203F24022D30212A0812C5
:10411000893069D7294B2903190BC96079A019BFC8
:104120002B201FDD390F9C80FFA1E0191229D03B05
:10413000A0FF0C3950194112208A01C01B33240101
:104140002A190F3AE0413952290F392349603C10AE
:104150003F202C29053F010E300806017029103838
:10416000080F300C030C300F2C49A14E312E0E31AC
:10417000200C29621D818E70183059D121572130B1
:104180002C22213055807C0202443F404072FF398E
:10419000083C02027C8F5440403F00083606010173
:1041A000020204042D010203040425060708090085
:040000050800018965
:00000001FF
